:020000040800F2
:1000000000280020951C0008251C00082B1C000857
:10001000311C0008371C00083D1C000800000000CF
:10002000000000000000000000000000431C000869
:100030004F1C0008000000005B1C0008671C000843
:10004000DD1C0008DD1C0008DD1C0008DD1C0008AC
:10005000DD1C0008DD1C0008DD1C0008DD1C00089C
:10006000DD1C0008DD1C0008DD1C0008DD1C00088C
:10007000DD1C0008DD1C0008DD1C0008DD1C00087C
:10008000DD1C0008DD1C0008DD1C0008DD1C00086C
:10009000DD1C0008DD1C0008DD1C0008DD1C00085C
:1000A000DD1C0008DD1C0008DD1C0008DD1C00084C
:1000B000751C0008DD1C000800000000DD1C0008A5
:1000C000DD1C00080000000000000000DD1C00082E
:1000D00000000000DD1C0008DD1C0008000000001E
:1000E000DD1C0008DD1C0008DD1C0008000000000D
:1000F0000000000000000000000000000000000000
:0C01000000000000000000005FF808F1A3
:10010C0010B5054C237833B9044B13B10448AFF345
:10011C0000800123237010BD180000200000000097
:10012C000C33000808B5034B1BB103490348AFF36C
:10013C00008008BD000000001C0000200C330008EB
:10014C0080B483B000AF0023FB715CE0FA793249D4
:10015C0013469B0013449B000B441B68002B4FD091
:10016C00FA792D4913469B0013449B000B4404332E
:10017C001B68002B32D1FA79274913469B00134494
:10018C009B000B440C331B78FA790133D8B222490B
:10019C0013469B0013449B000B440C3302461A700D
:1001AC00FA791D4913469B0013449B000B440833FA
:1001BC001B68002B24D0F979FA7917480B469B0061
:1001CC000B449B00034408331968134813469B00E7
:1001DC0013449B0003440433196011E0FA790E496F
:1001EC0013469B0013449B000B4404331B68591E9D
:1001FC00094813469B0013449B00034404331960C5
:10020C00FB790133FB71FB79272B9FD900BF00BF12
:10021C000C37BD4680BC70479800002080B487B076
:10022C0000AFF860B9607A600023FB7502E0FB7DDB
:10023C000133FB75FA7D204913469B0013449B0048
:10024C000B441B68002B02D0FB7D272BEFD9FB7DC9
:10025C00282B04D1194B01221A70282327E0FA7D90
:10026C00154913469B0013449B000B44FA681A6013
:10027C00FA7D114913469B0013449B000B44043335
:10028C00BA681A60FA7D0C4913469B0013449B0014
:10029C000B4408337A681A60FA7D074913469B00B1
:1002AC0013449B000B440C3300221A70FB7D184640
:1002BC001C37BD4680BC70479800002034000020DD
:1002CC0080B582B000AF0023FB7139E0FA79224986
:1002DC0013469B0013449B000B440C331B78002BE0
:1002EC002BD0FA791C4913469B0013449B000B44FA
:1002FC001B689847FA79184913469B0013449B00D6
:10030C000B440C331B78013BD8B2134913469B00AA
:10031C0013449B000B440C3302461A70FA790E49B5
:10032C0013469B0013449B000B4408331B68002BA3
:10033C0003D1FB79184600F011F8FB790133FB71FE
:10034C00FB79272BC2D900F057F800F04FF800BF0B
:10035C000837BD4680BD00BF9800002080B485B032
:10036C0000AF78601F497A6813469B0013449B00CA
:10037C000B441B68002B05D11B4B08221A70092358
:10038C00FB7301E00A23FB7316497A6813469B0042
:10039C0013449B000B4400221A6012497A681346DE
:1003AC009B0013449B000B44043300221A600D493C
:1003BC007A6813469B0013449B000B4408330022BD
:1003CC001A6008497A6813469B0013449B000B443F
:1003DC000C3300221A70FB7B18461437BD4680BCC8
:1003EC00704700BF980000203400002080B400AF9C
:1003FC0000BFBD4680BC704780B400AF00BFBD4697
:10040C0080BC704780B500AF0421024801F07BFF2F
:10041C0000BF80BD0008014080B500AF0821024834
:10042C0001F071FF00BF80BD0008014080B500AF36
:10043C001021024801F067FF00BF80BD0008014099
:10044C0080B500AF2021024801F05DFF00BF80BDE8
:10045C000008014080B500AF4021024801F053FF75
:10046C0000BF80BD0008014080B500AF00F068FD02
:10047C000346012B40F08480424B1B68022B2BD18E
:10048C00414B1A6813469B0013445B001A463F4BC2
:10049C001A603E4B1A683E4B1B689A4205DD3B4B7B
:1004AC001A683C4B1B689A4207DC394B1A68394B6B
:1004BC001B681344354A136006E0344B1A68354BFD
:1004CC001B68D31A324A1360304B1B68324A1360D4
:1004DC002F4B1B68314A13602A4B1B68032B25D109
:1004EC00294B1A6813469B0013445B001A46284B91
:1004FC001A60264B1A68264B1B689A4207DC254B60
:10050C001A68234B1B681344204A136006E01F4BE8
:10051C001A681F4B1B68D31A1E4A13601B4B1B68AF
:10052C001D4A13601A4B1B681C4A1360154B1B6841
:10053C00042B25D1144B1A6813469B0013445B0003
:10054C001A46144B1A60114B1A68124B1B689A42CC
:10055C0007DC104B1A680E4B1B6813440B4A1360D4
:10056C0006E00A4B1A680B4B1B68D31A084A136037
:10057C00064B1B68084A1360054B1B68074A13603F
:10058C0000BF80BD6C000020700000200000002027
:10059C0004000020080000206000002064000020FF
:1005AC0080B500AF144B1B68012B02D1134B0022FA
:1005BC001A60114B1B68022B04D1114B05221A60D7
:1005CC0001F0B2F80C4B1B68032B07D10D4B00222A
:1005DC001A600B4B06221A6001F0A6F8064B1B683A
:1005EC00042B07D1084B00221A60054B07221A6016
:1005FC0001F09AF800BF80BD6C0000204400002080
:10060C00580000203C0000204000002080B500AFC6
:10061C00144B1B68012B02D1134B00221A60114B97
:10062C001B68022B04D1114B05221A6001F07CF8D7
:10063C000C4B1B68032B07D10D4B00221A600B4B84
:10064C0006221A6001F070F8064B1B68042B07D1C8
:10065C00084B00221A60054B07221A6001F064F85F
:10066C0000BF80BD6C000020440000205C00002016
:10067C003C0000204000002080B500AF334B1B68CD
:10068C00062B61D0314B1B68052B5DD02F4B1B68A3
:10069C00072B59D02E4B1B68002B0BD12D4B1B68F5
:1006AC002D4A82FB03129210DB17D31A184600F066
:1006BC0035FD38E0264B1B68012B10D1254B1A68F1
:1006CC00254B83FB02139910D317C91A0B469B00B9
:1006DC000B445B00D11A084600F020FD23E01C4BB4
:1006EC001B68022B0BD11D4B1B681B4A82FB031290
:1006FC009210DB17D31A184600F010FD13E0144BC0
:10070C001B68032B0FD1154B1A68134B83FB021379
:10071C009910D317C91A0B469B000B445B00D11AD6
:10072C00084600F0FBFC0A4B1B68184600F0BCFEA8
:10073C00074B1B680133064A1360054B1B68042BDF
:10074C0002DD034B00221A6000BF80BD5800002060
:10075C003800002064000020676666666000002098
:10076C0080B400AF0A4B1B68062B0CD0084B1B68DF
:10077C00052B08D0064B1B68072B04D0054B1B68B8
:10078C00013B044A136000BFBD4680BC704700BFEC
:10079C00580000206000002080B400AF0A4B1B689A
:1007AC00062B0CD0084B1B68052B08D0064B1B687E
:1007BC00072B04D0054B1B68013B044A136000BF98
:1007CC00BD4680BC704700BF58000020640000206C
:1007DC0080B500AF2A4B1B68062B07D0284B1B6833
:1007EC00052B03D0264B1B68072B46D1254B1B68CA
:1007FC00184600F059FE234B1B68002B03D1002038
:10080C0000F08CFC2DE01F4B1B68012B05D11E4BFF
:10081C001B68184600F082FC23E01A4B1B68022B65
:10082C000BD11A4B1B681A4A82FB03129210DB176E
:10083C00D31A184600F072FC13E0124B1B68032B02
:10084C000FD1124B1A68124B83FB02139910D3175A
:10085C00C91A0B469B000B445B00D11A084600F0EA
:10086C005DFC084B1B680133064A1360054B1B6883
:10087C00042B02DD034B00221A6000BF80BD00BFB9
:10088C0058000020380000206C0000207000002070
:10089C006766666680B500AF464B1B68013B032B51
:1008AC0076D801A252F823F0C5080008E908000820
:1008BC0025090008610900083E4B02221A603E4BD4
:1008CC001B683E4A13603D4B1B683D4A82FB03127A
:1008DC009210DB17D31A3B4A136060E000F062FE03
:1008EC00FFF7C2FDFFF75CFE344B1B68002B51D1A8
:1008FC0000F01AFF2F4B03221A60334B1B682F4A50
:10090C0013602E4B1B682E4A82FB03129210DB17CE
:10091C00D31A2C4A13603DE000F070FEFFF7A4FDE3
:10092C00FFF73EFE254B1B68002B35D100F0FCFE7B
:10093C00204B04221A60254B1B68204A13601F4B66
:10094C001B681F4A82FB03129210DB17D31A1D4A35
:10095C00136021E000F03CFEFFF786FDFFF720FE60
:10096C00164B1B68002B19D100F0DEFE114B022236
:10097C001A60114B1B68114A1360104B1B68104A0C
:10098C0082FB03129210DB17D31A0E4A136005E098
:10099C0000BF04E000BF02E000BF00E000BF074B57
:1009AC001B68002B04DD054B1B68013B034A1360DD
:1009BC0000BF80BD5800002000000020480000202F
:1009CC0067666666600000200400002008000020B6
:1009DC0080B500AF464B1B68013B032B76D801A2B8
:1009EC0052F823F0010A0008250A0008610A0008E1
:1009FC009D0A00083E4B03221A603E4B1B683E4A80
:100A0C0013603D4B1B683D4A82FB03129210DB17AF
:100A1C00D31A3B4A136060E000F006FEFFF724FD9A
:100A2C00FFF7F4FD344B1B68002B51D100F07CFE1A
:100A3C002F4B03221A602F4B1B682F4A13602E4B2F
:100A4C001B682E4A82FB03129210DB17D31A2C4A16
:100A5C0013603DE000F014FEFFF706FDFFF7D6FD36
:100A6C00254B1B68002B35D100F05EFE204B042279
:100A7C001A60244B1B68204A13601F4B1B681F4ACB
:100A8C0082FB03129210DB17D31A1D4A136021E06C
:100A9C0000F0E0FDFFF7E8FCFFF7B8FD164B1B6814
:100AAC00002B19D100F040FE114B02221A60164B9C
:100ABC001B68114A1360104B1B68104A82FB03120F
:100ACC009210DB17D31A0E4A136005E000BF04E046
:100ADC0000BF02E000BF00E000BF074B1B68002B0B
:100AEC0004DD054B1B68013B034A136000BF80BD4E
:100AFC005C000020040000204C0000206766666645
:100B0C0064000020080000200000002080B500AF29
:100B1C00334B1B68072B30D0072B51DC052B02D035
:100B2C00062B15D04CE02F4B1B68002B04D100F08A
:100B3C00BDFD2C4B05221A602B4B1B68032B04D1DB
:100B4C00274B06221A6000F0EFFDFFF78DFC3CE00E
:100B5C00244B1B68002B04D100F0BCFD214B05225B
:100B6C001A60FFF781FC204B1B68042B2AD11C4B0D
:100B7C0007221A6000F0D8FD24E01A4B1B68002BEA
:100B8C0004D100F0BDFD174B05221A60FFF76CFC79
:100B9C00154B1B68012B17D1114B02221A60134BFA
:100BAC001B68134A82FB03129210DB17D31A114AEB
:100BBC0013600E4B1B68104A136000F0B5FD03E088
:100BCC0000BF02E000BF00E000BF064B1B68002B1B
:100BDC0004DD044B1B68013B024A136000BF80BD5F
:100BEC0058000020500000206C0000200000002065
:100BFC0067666666600000204800002080B500AF84
:100C0C00314B1B68072B2CD0072B4BDC052B02D050
:100C1C00062B13D046E02D4B1B68002B04D100F0A3
:100C2C004FFD2A4B05221A60294B1B68032B3BD125
:100C3C00254B06221A6000F077FD35E0234B1B682C
:100C4C00002B04D100F050FD204B05221A60204BE4
:100C5C001B68042B2AD11C4B07221A6000F064FD80
:100C6C0024E01A4B1B68002B04D100F053FD174BEA
:100C7C0005221A60164B1B68012B19D1124B03224B
:100C8C001A60144B1B68144A82FB03129210DB1778
:100C9C00D31A124A13600F4B1B68114A136000F0F1
:100CAC0043FD05E000BF04E000BF02E000BF00E030
:100CBC0000BF064B1B68002B04DD044B1B68013B7B
:100CCC00024A136000BF80BD5C000020540000206D
:100CDC006C0000200400002067666666640000203B
:100CEC004C00002080B500AF264B1B78022B38D06F
:100CFC00022B45DC002B02D0012B1ED040E0002043
:100D0C0000F0D8F90346002B35D01E4B01221A7087
:100D1C0000F0DAF80346012B2DD11B4B1B68013375
:100D2C00194A1360194B00221A60174B1B68042BCD
:100D3C0021DD154B01221A601DE0002000F0BAF9EC
:100D4C000346002B03D10F4B00221A7015E0002034
:100D5C0000F0CAF90346012B0FD10A4B02221A707C
:100D6C000BE0002000F0A6F90346002B07D1054B41
:100D7C0000221A7003E000BF02E000BF00E000BFD9
:100D8C0000BF80BD680000206C00002070000020B7
:100D9C0080B500AF254B1B78022B35D0022B42DCE3
:100DAC00002B02D0012B1BD03DE0012000F082F97A
:100DBC000346002B32D01D4B01221A7000F0A2F812
:100DCC000346012B2AD11A4B1B680133184A1360B6
:100DDC00174B1B68632B21DD154B00221A601DE09D
:100DEC00012000F067F90346002B03D10F4B0022C2
:100DFC001A7015E0012000F077F90346012B0FD192
:100E0C000A4B02221A700BE0012000F053F9034642
:100E1C00002B07D1054B00221A7003E000BF02E043
:100E2C0000BF00E000BF00BF80BD00BF6900002014
:100E3C007000002080B500AF1C4B1B78022B24D017
:100E4C00022B31DC002B02D0012B0AD02CE002202B
:100E5C0000F030F90346002B21D0144B01221A70FC
:100E6C001DE0022000F026F90346002B03D10F4BA6
:100E7C0000221A7015E0022000F036F90346012B0F
:100E8C000FD10A4B02221A700BE0022000F012F96B
:100E9C000346002B07D1054B00221A7003E000BF5C
:100EAC0002E000BF00E000BF00BF80BD6A00002070
:100EBC0080B400AF034B01221A6000BFBD4680BC5A
:100ECC00704700BF8C00002080B400AF064B1B683D
:100EDC00012B04D1044B00221A60012300E00023F3
:100EEC001846BD4680BC70478C00002080B400AF13
:100EFC00034B01221A6000BFBD4680BC704700BF87
:100F0C009000002080B400AF064B1B68012B04D16D
:100F1C00044B00221A60012300E000231846BD4652
:100F2C0080BC70479000002080B400AF034B0122BE
:100F3C001A6000BFBD4680BC704700BF9400002003
:100F4C0080B400AF064B1B68012B04D1044B00226C
:100F5C001A60012300E000231846BD4680BC704790
:100F6C009400002080B582B000AF0023FB718BE0B1
:100F7C00FA79FB794949895C494AD154FB79002BB0
:100F8C0008D10121474801F08FF903461A46434B1B
:100F9C001A7016E0FB79012B08D10221414801F0AF
:100FAC0083F903461A463D4B5A700AE0FB79022B33
:100FBC0007D104213B4801F077F903461A46374B19
:100FCC009A70FB79354AD25CFB793549CB5C9A42F5
:100FDC004ED1FA79FB793149895C334AD154FB798A
:100FEC00314AD35C002B4CD1FB79002B02D1FFF79B
:100FFC005FFF0AE0FB79012B02D1FFF777FF04E0DA
:10100C00FB79022B01D1FFF78FFFFB79274A32F8CE
:10101C001330092B0ED8FB79254AD35C002B09D150
:10102C00FB79224A32F81320013291B21F4A22F87E
:10103C00131026E0FB791E4A0121D154FB791B4A7F
:10104C0032F813300E2B09D8FB79184A32F81320DA
:10105C00013291B2154A22F8131012E0FB79124AB0
:10106C000121D154FB79114A0A2122F8131008E00E
:10107C00FB790E4A002122F81310FB790C4A00214F
:10108C00D154FB790133FB71FB79022B7FF670AFE6
:10109C0000BF00BF0837BD4680BD00BF78000020F0
:1010AC007C000020000C0140740000208400002013
:1010BC008000002080B483B000AF0346FB71FB7945
:1010CC00022B01D9002307E0FB79064AD35C002BE5
:1010DC000CBF01230023DBB218460C37BD4680BC85
:1010EC00704700BF7400002080B483B000AF03468B
:1010FC00FB71FB79022B01D9FF2307E0FB79064A30
:10110C00D35C012B0CBF01230023DBB218460C3738
:10111C00BD4680BC704700BF8000002080B582B007
:10112C0000AF78607B68002B28D100228021D24848
:10113C0001F0D1F800224FF48071CF4801F0CBF8C8
:10114C0000224FF40071CC4801F0C5F800224FF496
:10115C008061C94801F0BFF800224FF40061C64815
:10116C0001F0B9F800224FF48051C34801F0B3F8F4
:10117C0001224FF40051C04801F0ADF87B68012BFF
:10118C0028D101228021BC4801F0A5F800224FF49F
:10119C008071B94801F09FF800224FF40071B648F5
:1011AC0001F099F801224FF48061B34801F093F8F3
:1011BC0001224FF40061B04801F08DF801224FF488
:1011CC008051AD4801F087F801224FF40051AA4834
:1011DC0001F081F87B68022B28D100228021A648DF
:1011EC0001F079F800224FF48071A34801F073F8F4
:1011FC0001224FF40071A04801F06DF800224FF469
:10120C0080619D4801F067F800224FF400619A4814
:10121C0001F061F801224FF48051974801F05BF81E
:10122C0000224FF40051944801F055F87B68032BD1
:10123C0028D100228021904801F04DF800224FF473
:10124C0080718D4801F047F800224FF400718A48F4
:10125C0001F041F800224FF48061874801F03BF81F
:10126C0001224FF40061844801F035F801224FF45B
:10127C008051814801F02FF800224FF400517E4834
:10128C0001F029F87B68042B28D1012280217A48AF
:10129C0001F021F800224FF48071774801F01BF81F
:1012AC0000224FF40071744801F015F801224FF43C
:1012BC008061714801F00FF801224FF400616E4813
:1012CC0001F009F800224FF480516B4801F003F84B
:1012DC0000224FF40051684800F0FDFF7B68052B9D
:1012EC0028D100228021644800F0F5FF01224FF440
:1012FC008071614800F0EFFF00224FF400715E48EE
:10130C0000F0E9FF00224FF480615B4800F0E3FF3E
:10131C0001224FF40061584800F0DDFF00224FF429
:10132C008051554800F0D7FF00224FF4005152482D
:10133C0000F0D1FF7B68062B28D1002280214E487B
:10134C0000F0C9FF01224FF480714B4800F0C3FF3D
:10135C0000224FF40071484800F0BDFF00224FF40A
:10136C008061454800F0B7FF00224FF4006142480D
:10137C0000F0B1FF00224FF480513F4800F0ABFF6A
:10138C0000224FF400513C4800F0A5FF7B68072B6E
:10139C0028D100228021384800F09DFF00224FF414
:1013AC008071354800F097FF00224FF400713248ED
:1013BC0000F091FF01224FF480612F4800F08BFF69
:1013CC0001224FF400612C4800F085FF01224FF4FC
:1013DC008051294800F07FFF01224FF4005126482C
:1013EC0000F079FF7B68082B28D10022802122484D
:1013FC0000F071FF00224FF480711F4800F06BFF6A
:10140C0000224FF400711C4800F065FF00224FF4DD
:10141C008061194800F05FFF00224FF4006116480C
:10142C0000F059FF00224FF48051134800F053FF95
:10143C0000224FF40051104800F04DFF7B68092B3F
:10144C002BD1002280210C4800F045FF00224FF4E4
:10145C008071094800F03FFF00224FF400710648EC
:10146C0000F039FF00224FF48061034800F033FF95
:10147C0001224FF4006101E000080140094800F02E
:10148C002AFF00224FF48051064800F024FF00226E
:10149C004FF40051034800F01EFF00BF0837BD4653
:1014AC0080BD00BF0008014080B582B000AF7860FD
:1014BC007B68032B6ED801A252F823F0D9140008D4
:1014CC000B1500083D1500086F15000800224FF49D
:1014DC000071334800F0FFFE01224FF48061304868
:1014EC0000F0F9FE01224FF400612D4800F0F3FEEC
:1014FC0001224FF480512A4800F0EDFE4BE001220E
:10150C004FF40071264800F0E6FE00224FF4806193
:10151C00234800F0E0FE01224FF40061204800F067
:10152C00DAFE01224FF480511D4800F0D4FE32E067
:10153C0001224FF400711A4800F0CDFE01224FF445
:10154C008061174800F0C7FE00224FF40061144878
:10155C0000F0C1FE01224FF48051114800F0BBFE97
:10156C0019E001224FF400710D4800F0B4FE012285
:10157C004FF480610A4800F0AEFE01224FF4006186
:10158C00074800F0A8FE00224FF48051044800F0F8
:10159C00A2FE00E000BF00BF0837BD4680BD00BF03
:1015AC00000C014080B500AF01220821074800F073
:1015BC0092FE00222021054800F08DFE0022102111
:1015CC00024800F088FE00BF80BD00BF000C014047
:1015DC0080B500AF00220821074800F07CFE0022F5
:1015EC002021054800F077FE01221021024800F06E
:1015FC0072FE00BF80BD00BF000C014080B500AF83
:10160C0000220821074800F066FE0122202105482F
:10161C0000F061FE00221021024800F05CFE00BFC9
:10162C0080BD00BF000C014080B500AF01224021FD
:10163C00074800F050FE00224FF48071044800F07F
:10164C004AFE00228021024800F045FE00BF80BD0A
:10165C00000C014080B500AF00224021074800F08B
:10166C003AFE00224FF48071044800F034FE01224F
:10167C008021024800F02FFE00BF80BD000C01400D
:10168C0080B500AF00224021074800F024FE012263
:10169C004FF48071044800F01EFE002280210248A5
:1016AC0000F019FE00BF80BD000C014080B500AFFA
:1016BC000821024800F027FE00BF80BD000C01404D
:1016CC0080B500AF4021024800F01DFE00BF80BD78
:1016DC00000C014080B500AF2021024800F013FE41
:1016EC0000BF80BD000C014080B500AF4FF480718D
:1016FC00024800F008FE00BF80BD00BF000C014096
:10170C0080B500AF1021024800F0FDFD00BF80BD88
:10171C00000C014080B500AF8021024800F0F3FDC1
:10172C0000BF80BD000C014080B500AF0022082135
:10173C000F4800F0D0FD002220210D4800F0CBFD19
:10174C00002210210A4800F0C6FD00224021084862
:10175C0000F0C1FD00224FF48071054800F0BBFD84
:10176C0000228021024800F0B6FD00BF80BD00BF02
:10177C00000C014080B500AF00F0ACFA00F0F6F8B8
:10178C0000F07CF900F02EF95E4801F001FA01221C
:10179C0080215D4800F09FFD01224FF480715A4872
:1017AC0000F099FD01224FF40071574800F093FDB1
:1017BC0001224FF48061544800F08DFD01224FF45A
:1017CC000061514800F087FD01224FF480514E48D2
:1017DC0000F081FD01224FF400514B4800F07BFDDD
:1017EC0001224FF40071494800F075FD01224FF4BD
:1017FC008061464800F06FFD01224FF400614348C0
:10180C0000F069FD01224FF48051404800F063FD67
:10181C0001224FF400513D4800F05DFD01224FF4D0
:10182C0080413A4800F057FD01224FF400413748FF
:10183C0000F051FD364B01221A60364B01221A6022
:10184C00354B00221A60354B00221A60344B0122B2
:10185C001A60344B00221A60334B00221A60322279
:10186C0032213248FEF7DAFC642264213048FEF75C
:10187C00D5FC962296212F48FEF7D0FCC822C82111
:10188C002D48FEF7CBFCFA22FA212C48FEF7C6FCB9
:10189C000A2200212A48FEF7C1FC0A22002129480D
:1018AC00FEF7BCFC192264212748FEF7B7FC642222
:1018BC0064212648FEF7B2FC642264212448FEF71A
:1018CC00ADFC192264212348FEF7A8FC0A220A2148
:1018DC002148FEF7A3FC0A220A212048FEF79EFCB1
:1018EC000A220A211E48FEF799FC0A220A211D48E9
:1018FC00FEF794FC0A220A211B48FEF78FFCFEF728
:10190C00DFFCFCE7B803002000080140000C01409C
:10191C00580000205C000020480000204C000020F3
:10192C006C0000207000002038000020110400081A
:10193C0025040008390400084D040008610400085F
:10194C00A1080008DD090008850600086D070008DD
:10195C00A5070008DD070008190B0008090C000892
:10196C00F10C00089D0D0008410E000880B590B0E8
:10197C0000AF07F1180328220021184601F0B8FC2B
:10198C003B1D00221A605A609A60DA601A610223C9
:10199C00BB610123BB621023FB6200237B6307F155
:1019AC001803184600F0C8FC0346002B01D000F0C9
:1019BC00D8F80F237B600023BB600023FB6000235F
:1019CC003B6100237B613B1D0021184600F034FF76
:1019DC000346002B01D000F0C4F800BF4037BD46D1
:1019EC0080BD000080B586B000AF07F1080300226F
:1019FC001A605A609A60DA603B4600221A605A609C
:101A0C001D4B4FF080421A601B4B41F63F725A60DF
:101A1C00194B00229A60184B0922DA60164B0022EF
:101A2C001A61154B00229A61134801F061F80346C4
:101A3C00002B01D000F095F84FF48053BB6007F1F8
:101A4C00080319460C4801F0DFF90346002B01D0BE
:101A5C0000F087F800233B6000237B603B4619466F
:101A6C00054801F0B7FB0346002B01D000F079F8D4
:101A7C0000BF1837BD4680BDB803002080B586B0C6
:101A8C0000AF07F1080300221A605A609A60DA600E
:101A9C00284B9B69274A43F004039361254B9B69B0
:101AAC0003F004037B607B68224B9B69214A43F063
:101ABC00080393611F4B9B6903F008033B603B6871
:101ACC00002243F6FC711C4800F005FC00224FF686
:101ADC00F8711A4800F0FFFB43F6FC73BB6001235E
:101AEC00FB6000233B6102237B6107F1080319466D
:101AFC00114800F05FFA0723BB600023FB60012351
:101B0C003B6107F1080319460C4800F053FA4FF6F5
:101B1C00F873BB600123FB6000233B6102237B61F4
:101B2C0007F108031946054800F044FA00BF1837BE
:101B3C00BD4680BD0010024000080140000C014071
:101B4C0080B582B000AF78607B681B68B3F1804FC2
:101B5C0003D1FFF707FAFEF7F3FA00BF0837BD46CB
:101B6C0080BD80B400AF72B600BFFEE780B485B014
:101B7C0000AF154B9B69144A43F001039361124B60
:101B8C009B6903F00103BB60BB680F4BDB690E4A1A
:101B9C0043F08053D3610C4BDB6903F080537B60C3
:101BAC007B680A4B5B68FB60FB6823F0E063FB60BF
:101BBC00FB6843F08063FB60044AFB68536000BF22
:101BCC001437BD4680BC7047001002400000014035
:101BDC0080B584B000AF78607B681B68B3F1804F30
:101BEC0013D10C4BDB690B4A43F00103D361094B56
:101BFC00DB6903F00103FB60FB68002200211C2061
:101C0C0000F0A1F91C2000F0BAF900BF1037BD4656
:101C1C0080BD00BF0010024080B400AFFEE780B46E
:101C2C0000AFFEE780B400AFFEE780B400AFFEE784
:101C3C0080B400AFFEE780B400AF00BFBD4680BCEF
:101C4C00704780B400AF00BFBD4680BC704780B405
:101C5C0000AF00BFBD4680BC704780B500AF00F040
:101C6C007FF800BF80BD000080B500AF024800F0D7
:101C7C00DBFF00BF80BD00BFB803002080B400AF05
:101C8C0000BFBD4680BC7047FFF7F8FF0B480C49FE
:101C9C000C4A002302E0D458C4500433C4188C42BC
:101CAC00F9D3094A094C002301E013600432A24223
:101CBC00FBD301F0F9FAFFF75DFD7047000000203F
:101CCC0018000020503300081800002004040020E5
:101CDC00FEE7000080B500AF084B1B68074A43F0D5
:101CEC0010031360032000F023F90F2000F008F814
:101CFC00FFF73CFF0023184680BD00BF00200240C8
:101D0C0080B582B000AF7860124B1A68124B1B780A
:101D1C0019464FF47A73B3FBF1F3B2FBF3F31846A5
:101D2C0000F03BF90346002B01D001230EE07B6849
:101D3C000F2B0AD8002279684FF0FF3000F003F91E
:101D4C00064A7B681360002300E00123184608371D
:101D5C00BD4680BD0C0000201400002010000020A7
:101D6C0080B400AF054B1B781A46054B1B68134417
:101D7C00034A136000BFBD4680BC704714000020AE
:101D8C000004002080B400AF024B1B681846BD460F
:101D9C0080BC70470004002080B485B000AF786030
:101DAC007B6803F00703FB600C4BDB68BB60BA6815
:101DBC004FF6FF031340BB60FB681A02BB6813436A
:101DCC0043F0BF6343F40033BB60044ABB68D36089
:101DDC0000BF1437BD4680BC704700BF00ED00E06B
:101DEC0080B400AF044BDB681B0A03F007031846F2
:101DFC00BD4680BC704700BF00ED00E080B483B0EE
:101E0C0000AF0346FB7197F90730002B0BDBFB7916
:101E1C0003F01F02064997F907305B09012000FA0D
:101E2C0002F241F8232000BF0C37BD4680BC70473E
:101E3C0000E100E080B483B000AF03463960FB7171
:101E4C0097F90730002B0ADB3B68DAB20C4997F99B
:101E5C0007301201D2B20B4483F800230AE03B682E
:101E6C00DAB20849FB7903F00F03043B1201D2B23A
:101E7C000B441A7600BF0C37BD4680BC704700BFC0
:101E8C0000E100E000ED00E080B489B000AFF86044
:101E9C00B9607A60FB6803F00703FB61FB69C3F16F
:101EAC000703042B28BF0423BB61FB690433062BF7
:101EBC0002D9FB69033B00E000237B614FF0FF324A
:101ECC00BB6902FA03F3DA43BB681A407B699A4098
:101EDC004FF0FF317B6901FA03F3D9437B680B4068
:101EEC00134318462437BD4680BC704780B582B07A
:101EFC0000AF78607B68013BB3F1807F01D3012395
:101F0C000FE00A4A7B68013B53600F214FF0FF3012
:101F1C00FFF790FF054B00229A60044B07221A60D2
:101F2C00002318460837BD4680BD00BF10E000E016
:101F3C0080B582B000AF78607868FFF72DFF00BFE6
:101F4C000837BD4680BD80B586B000AF0346B9608A
:101F5C007A60FB7300237B61FFF742FF78617A683C
:101F6C00B9687869FFF790FF024697F90F30114670
:101F7C001846FFF75FFF00BF1837BD4680BD80B520
:101F8C0082B000AF0346FB7197F907301846FFF794
:101F9C0035FF00BF0837BD4680BD80B582B000AFAD
:101FAC0078607868FFF7A2FF034618460837BD46ED
:101FBC0080BD000080B48BB000AF78603960002326
:101FCC007B6200233B6248E101227B6A02FA03F345
:101FDC00FB613B681B68FA691340BB61BA69FB691A
:101FEC009A4240F037813B685B68A34A93425ED0CB
:101FFC00A14A934275D8A14A934258D09F4A934222
:10200C006FD89F4A934252D09D4A934269D89D4AB9
:10201C0093424CD09B4A934263D89B4A934246D0FE
:10202C00994A93425DD8122B2AD8122B59D801A267
:10203C0052F823F0BB20000895200008A7200008C8
:10204C00E9200008EF200008EF200008EF2000082E
:10205C00EF200008EF200008EF200008EF20000818
:10206C00EF200008EF200008EF200008EF20000808
:10207C00EF200008EF2000089D200008B120000888
:10208C00824A934213D02CE03B68DB683B6229E028
:10209C003B68DB6804333B6224E03B68DB68083355
:1020AC003B621FE03B68DB680C333B621AE03B6829
:1020BC009B68002B02D104233B6213E03B689B68B6
:1020CC00012B05D108233B627B68FA691A6109E090
:1020DC0008233B627B68FA695A6103E000233B6288
:1020EC0000E000BFBB69FF2B01D87B6801E07B6877
:1020FC0004337B61BB69FF2B02D87B6A9B0002E037
:10210C007B6A083B9B003B617B691A680F213B692A
:10211C0001FA03F3DB431A40396A3B6901FA03F312
:10212C001A437B691A603B685B6803F08053002B91
:10213C0000F09080564B9B69554A43F00103936124
:10214C00534B9B6903F00103BB60BB68514A7B6A2C
:10215C009B08023352F82330FB607B6A03F00303C5
:10216C009B000F2202FA03F3DB43FA681340FB6077
:10217C007B68494A93420DD07B68484A934207D00A
:10218C007B68474A934201D1022304E0032302E017
:10219C00012300E000237A6A02F0030292009340CC
:1021AC00FA681343FB603B497B6A9B080233FA686D
:1021BC0041F823203B685B6803F48013002B06D0A6
:1021CC00384B9A683749BB6913438B6006E0354B33
:1021DC009A68BB69DB43334913408B603B685B688F
:1021EC0003F40013002B06D02E4BDA682D49BB6983
:1021FC001343CB6006E02B4BDA68BB69DB43294900
:10220C001340CB603B685B6803F40033002B06D0B3
:10221C00244B5A682349BB6913434B6006E0214B9E
:10222C005A68BB69DB431F4913404B603B685B68D2
:10223C0003F48033002B06D01A4B1A681949BB697A
:10224C0013430B6006E0174B1A68BB69DB43154957
:10225C0013400B607B6A01337B623B681A687B6AB4
:10226C0022FA03F3002B7FF4AFAE00BF00BF2C3774
:10227C00BD4680BC704700BF00003210000031101A
:10228C00000022100000211000001210000011109C
:10229C00001002400000014000080140000C014009
:1022AC00001001400004014080B485B000AF78609C
:1022BC000B467B807B689A687B881340002B02D08E
:1022CC000123FB7301E00023FB73FB7B18461437DF
:1022DC00BD4680BC704780B483B000AF78600B46BD
:1022EC007B8013467B707B78002B03D07A887B68CD
:1022FC001A6103E07B881A047B681A6100BF0C37F3
:10230C00BD4680BC704780B485B000AF78600B468A
:10231C007B807B68DB68FB607A88FB6813401A045F
:10232C00FB68D9437B880B401A437B681A6100BF5A
:10233C001437BD4680BC704780B586B000AF78605E
:10234C007B68002B01D101236CE27B681B6803F0D6
:10235C000103002B00F08780924B5B6803F00C03A9
:10236C00042B0CD08F4B5B6803F00C03082B12D1A1
:10237C008C4B5B6803F48033B3F5803F0BD1894BF6
:10238C001B6803F40033002B6CD07B685B68002B5C
:10239C0068D1012346E27B685B68B3F5803F06D1C8
:1023AC00804B1B687F4A43F4803313602EE07B68BC
:1023BC005B68002B0CD17B4B1B687A4A23F480336F
:1023CC001360784B1B68774A23F4802313601DE05D
:1023DC007B685B68B3F5A02F0CD1724B1B68714AFC
:1023EC0043F4802313606F4B1B686E4A43F48033B5
:1023FC0013600BE06B4B1B686A4A23F48033136049
:10240C00684B1B68674A23F4802313607B685B6806
:10241C00002B13D0FFF7B6FC386108E0FFF7B2FCD5
:10242C0002463B69D31A642B01D90323FAE15D4BB5
:10243C001B6803F40033002BF0D014E0FFF7A2FC70
:10244C00386108E0FFF79EFC02463B69D31A642B07
:10245C0001D90323E6E1534B1B6803F40033002B33
:10246C00F0D100E000BF7B681B6803F00203002B77
:10247C0063D04C4B5B6803F00C03002B0BD0494B27
:10248C005B6803F00C03082B1CD1464B5B6803F410
:10249C008033002B16D1434B1B6803F00203002B37
:1024AC0005D07B681B69012B01D00123BAE13D4BA0
:1024BC001B6823F0F8027B685B69DB003949134326
:1024CC000B603AE07B681B69002B20D0364B012255
:1024DC001A60FFF757FC386108E0FFF753FC02461F
:1024EC003B69D31A022B01D903239BE12D4B1B68AB
:1024FC0003F00203002BF0D02A4B1B6823F0F802E8
:10250C007B685B69DB00274913430B6015E0264BA6
:10251C0000221A60FFF736FC386108E0FFF732FC46
:10252C0002463B69D31A022B01D903237AE11D4BD6
:10253C001B6803F00203002BF0D17B681B6803F0CF
:10254C000803002B3AD07B689B69002B19D0174BE2
:10255C0001221A60FFF716FC386108E0FFF712FC45
:10256C0002463B69D31A022B01D903235AE10D4BC6
:10257C005B6A03F00203002BF0D0012000F09AFA02
:10258C001CE00A4B00221A60FFF7FCFB38610FE0DD
:10259C00FFF7F8FB02463B69D31A022B08D9032339
:1025AC0040E100BF00100240000042428004424261
:1025BC009E4B5B6A03F00203002BE9D17B681B681E
:1025CC0003F00403002B00F0A6800023FB75974B4F
:1025DC00DB6903F08053002B0DD1944BDB69934ADC
:1025EC0043F08053D361914BDB6903F08053BB60A4
:1025FC00BB680123FB758E4B1B6803F48073002BA7
:10260C0018D18B4B1B688A4A43F480731360FFF715
:10261C00B9FB386108E0FFF7B5FB02463B69D31AFA
:10262C00642B01D90323FDE0814B1B6803F48073F9
:10263C00002BF0D07B68DB68012B06D17B4B1B6A2F
:10264C007A4A43F0010313622DE07B68DB68002BB0
:10265C000CD1764B1B6A754A23F001031362734B42
:10266C001B6A724A23F0040313621CE07B68DB686C
:10267C00052B0CD16D4B1B6A6C4A43F0040313629F
:10268C006A4B1B6A694A43F0010313620BE0674B08
:10269C001B6A664A23F001031362644B1B6A634A8C
:1026AC0023F0040313627B68DB68002B15D0FFF763
:1026BC0069FB38610AE0FFF765FB02463B69D31AF8
:1026CC0041F28832934201D90323ABE0574B1B6A8A
:1026DC0003F00203002BEED014E0FFF753FB38613C
:1026EC000AE0FFF74FFB02463B69D31A41F28832EE
:1026FC00934201D9032395E04C4B1B6A03F0020370
:10270C00002BEED1FB7D012B05D1484BDB69474AF1
:10271C0023F08053D3617B68DB69002B00F0818050
:10272C00424B5B6803F00C03082B61D07B68DB69C0
:10273C00022B46D13F4B00221A60FFF723FB386176
:10274C0008E0FFF71FFB02463B69D31A022B01D9A5
:10275C00032367E0354B1B6803F00073002BF0D1AB
:10276C007B681B6AB3F5803F08D1304B5B6823F460
:10277C0000327B689B682D4913434B602B4B5B6885
:10278C0023F474127B68196A7B685B6A0B432749D4
:10279C0013434B60274B01221A60FFF7F3FA3861A1
:1027AC0008E0FFF7EFFA02463B69D31A022B01D976
:1027BC00032337E01D4B1B6803F00073002BF0D094
:1027CC002FE01C4B00221A60FFF7DCFA386108E09E
:1027DC00FFF7D8FA02463B69D31A022B01D903231F
:1027EC0020E0124B1B6803F00073002BF0D118E0B3
:1027FC007B68DB69012B01D1012313E00B4B5B6878
:10280C00FB60FB6803F480327B681B6A9A4206D13A
:10281C00FB6803F470127B685B6A9A4201D0012357
:10282C0000E0002318461837BD4680BD001002405A
:10283C00007000406000424280B584B000AF786008
:10284C0039607B68002B01D10123D0E06A4B1B68F7
:10285C0003F007033A689A4210D9674B1B6823F0C0
:10286C00070265493B6813430B60634B1B6803F01D
:10287C0007033A689A4201D00123B8E07B681B68D1
:10288C0003F00203002B20D07B681B6803F00403C9
:10289C00002B05D0594B5B68584A43F4E0635360F6
:1028AC007B681B6803F00803002B05D0534B5B6857
:1028BC00524A43F460535360504B5B6823F0F00270
:1028CC007B689B684D4913434B607B681B6803F026
:1028DC000103002B40D07B685B68012B07D1474B71
:1028EC001B6803F40033002B15D101237FE07B68B8
:1028FC005B68022B07D1414B1B6803F00073002B64
:10290C0009D1012373E03D4B1B6803F00203002B3C
:10291C0001D101236BE0394B5B6823F003027B6828
:10292C005B68364913434B60FFF72CFAF8600AE0FA
:10293C00FFF728FA0246FB68D31A41F28832934219
:10294C0001D9032353E02D4B5B6803F00C027B6829
:10295C005B689B009A42EBD1274B1B6803F0070383
:10296C003A689A4210D2244B1B6823F00702224982
:10297C003B6813430B60204B1B6803F007033A685A
:10298C009A4201D0012332E07B681B6803F00403F8
:10299C00002B08D0194B5B6823F4E0627B68DB6882
:1029AC00164913434B607B681B6803F00803002B2C
:1029BC0009D0124B5B6823F460527B681B69DB0007
:1029CC000E4913434B6000F021F802460B4B5B6839
:1029DC001B0903F00F030A49CB5C22FA03F3094AE3
:1029EC001360094B1B681846FFF78AF90023184639
:1029FC001037BD4680BD00BF0020024000100240D1
:102A0C00243300080C0000201000002080B487B094
:102A1C0000AF0023FB600023BB6000237B6100231D
:102A2C007B6000233B611E4B5B68FB60FB6803F023
:102A3C000C03042B02D0082B03D027E0194B3B616D
:102A4C0027E0FB689B0C03F00F03174AD35C7B60F9
:102A5C00FB6803F48033002B10D0114B5B685B0CCC
:102A6C0003F00103114AD35CBB607B680D4A02FB87
:102A7C0003F2BB68B2FBF3F37B6104E07B680C4AA6
:102A8C0002FB03F37B617B693B6102E0054B3B611D
:102A9C0000BF3B6918461C37BD4680BC704700BF61
:102AAC000010024000127A0034330008443300084E
:102ABC0000093D0080B485B000AF78600A4B1B68FC
:102ACC000A4AA2FB03235B0A7A6802FB03F3FB604E
:102ADC0000BFFB685A1EFA60002BF9D100BF00BF83
:102AEC001437BD4680BC70470C000020D34D6210DB
:102AFC0080B582B000AF78607B68002B01D10123D8
:102B0C0041E07B6893F83D30DBB2002B06D17B684B
:102B1C00002283F83C207868FFF75AF87B68022281
:102B2C0083F83D207B681A687B680433194610468D
:102B3C0000F056FA7B68012283F846207B6801225C
:102B4C0083F83E207B68012283F83F207B680122BA
:102B5C0083F840207B68012283F841207B680122A6
:102B6C0083F842207B68012283F843207B68012292
:102B7C0083F844207B68012283F845207B6801227E
:102B8C0083F83D20002318460837BD4680BD000061
:102B9C0080B485B000AF78607B6893F83D30DBB2D1
:102BAC00012B01D0012335E07B68022283F83D2004
:102BBC007B681B68DA687B681B6842F00102DA608C
:102BCC007B681B68164A934209D07B681B68B3F17B
:102BDC00804F04D07B681B68124A934211D17B68EA
:102BEC001B689B6803F00703FB60FB68062B10D087
:102BFC007B681B681A687B681B6842F001021A60CC
:102C0C0007E07B681B681A687B681B6842F001024E
:102C1C001A60002318461437BD4680BC704700BFAD
:102C2C00002C01400004004080B584B000AF7860F7
:102C3C007B681B68DB68FB607B681B681B69BB607F
:102C4C00BB6803F00203002B20D0FB6803F00203E7
:102C5C00002B1BD07B681B686FF002021A617B682B
:102C6C0001221A777B681B689B6903F00303002B16
:102C7C0003D0786800F098F905E0786800F08BF9DB
:102C8C00786800F09AF97B6800221A77BB6803F029
:102C9C000403002B20D0FB6803F00403002B1BD093
:102CAC007B681B686FF004021A617B6802221A773A
:102CBC007B681B689B6903F44073002B03D0786816
:102CCC0000F072F905E0786800F065F9786800F0BA
:102CDC0074F97B6800221A77BB6803F00803002B99
:102CEC0020D0FB6803F00803002B1BD07B681B680B
:102CFC006FF008021A617B6804221A777B681B68E4
:102D0C00DB6903F00303002B03D0786800F04CF967
:102D1C0005E0786800F03FF9786800F04EF97B68C0
:102D2C0000221A77BB6803F01003002B20D0FB683D
:102D3C0003F01003002B1BD07B681B686FF0100294
:102D4C001A617B6808221A777B681B68DB6903F4BD
:102D5C004073002B03D0786800F026F905E0786802
:102D6C0000F019F9786800F028F97B6800221A77CE
:102D7C00BB6803F00103002B0CD0FB6803F00103CC
:102D8C00002B07D07B681B686FF001021A61786812
:102D9C00FEF7D6FEBB6803F08003002B0CD0FB685B
:102DAC0003F08003002B07D07B681B686FF0800258
:102DBC001A61786800F06FFABB6803F04003002BCF
:102DCC000CD0FB6803F04003002B07D07B681B681A
:102DDC006FF040021A61786800F0F8F8BB6803F0F5
:102DEC002003002B0CD0FB6803F02003002B07D032
:102DFC007B681B686FF020021A61786800F042FA59
:102E0C0000BF1037BD4680BD80B584B000AF786080
:102E1C0039600023FB737B6893F83C30012B01D1A4
:102E2C000223B4E07B68012283F83C207B680222F9
:102E3C0083F83D207B681B689B68BB60BB6823F0F4
:102E4C007703BB60BB6823F47F43BB607B681B6864
:102E5C00BA689A603B681B68B3F5005F3ED0B3F567
:102E6C00005F00F28780B3F5805F00F08680B3F5D9
:102E7C00805F7FD8702B1AD0702B7BD8602B50D0F2
:102E8C00602B77D8502B3CD0502B73D8402B58D07C
:102E9C00402B6FD8302B64D0302B6BD8202B60D0CC
:102EAC00202B67D8002B5CD0102B5AD062E07B68AB
:102EBC0018683B6899683B685A683B68DB6800F0A7
:102ECC006AF97B681B689B68BB60BB6843F077033F
:102EDC00BB607B681B68BA689A604FE07B681868B7
:102EEC003B6899683B685A683B68DB6800F053F9AB
:102EFC007B681B689A687B681B6842F480429A6006
:102F0C003CE07B6818683B6859683B68DB681A468C
:102F1C0000F0CAF87B681B685021184600F021F9B4
:102F2C002CE07B6818683B6859683B68DB681A467C
:102F3C0000F0E8F87B681B686021184600F011F976
:102F4C001CE07B6818683B6859683B68DB681A466C
:102F5C0000F0AAF87B681B684021184600F001F9C4
:102F6C000CE07B681A683B681B681946104600F039
:102F7C00F8F803E00123FB7300E000BF7B6801223B
:102F8C0083F83D207B68002283F83C20FB7B1846AD
:102F9C001037BD4680BD80B483B000AF786000BFF1
:102FAC000C37BD4680BC704780B483B000AF7860EE
:102FBC0000BF0C37BD4680BC704780B483B000AFF7
:102FCC00786000BF0C37BD4680BC704780B483B0BE
:102FDC0000AF786000BF0C37BD4680BC7047000066
:102FEC0080B485B000AF786039607B681B68FB608B
:102FFC007B682B4A934207D07B68B3F1804F03D098
:10300C007B68284A934208D1FB6823F07003FB606D
:10301C003B685B68FA681343FB607B68204A934209
:10302C0007D07B68B3F1804F03D07B681D4A934275
:10303C0008D1FB6823F44073FB603B68DB68FA68DB
:10304C001343FB60FB6823F080023B685B6913430E
:10305C00FB607B68FA681A603B689A687B68DA6286
:10306C003B681A687B689A627B680D4A934203D16D
:10307C003B681A697B681A637B6801225A617B681A
:10308C001B6903F00103002B05D07B681B6923F03F
:10309C0001027B681A6100BF1437BD4680BC7047C3
:1030AC00002C01400004004080B487B000AFF860F1
:1030BC00B9607A60FB681B6A7B61FB681B6A23F052
:1030CC000102FB681A62FB689B693B613B6923F058
:1030DC00F0033B617B681B013A6913433B617B69DD
:1030EC0023F00A037B617A69BB6813437B61FB683D
:1030FC003A699A61FB687A691A6200BF1C37BD464F
:10310C0080BC704780B487B000AFF860B9607A605B
:10311C00FB681B6A7B61FB681B6A23F01002FB686F
:10312C001A62FB689B693B613B6923F470433B610A
:10313C007B681B033A6913433B617B6923F0A00353
:10314C007B61BB681B017A6913437B61FB683A693D
:10315C009A61FB687A691A6200BF1C37BD4680BC55
:10316C00704780B485B000AF786039607B689B682D
:10317C00FB60FB6823F07003FB603A68FB68134349
:10318C0043F00703FB607B68FA689A6000BF143752
:10319C00BD4680BC704780B487B000AFF860B960A2
:1031AC007A603B60FB689B687B617B6923F47F439F
:1031BC007B613B681A027B681A43BB6813437A69CC
:1031CC0013437B61FB687A699A6000BF1C37BD466C
:1031DC0080BC704780B485B000AF786039607B6884
:1031EC0093F83C30012B01D1022341E07B68012292
:1031FC0083F83C207B68022283F83D207B681B68A7
:10320C005B68FB607B681B689B68BB60FB6823F09A
:10321C007003FB603B681B68FA681343FB607B68B8
:10322C001B68FA685A607B681B68144A934209D081
:10323C007B681B68B3F1804F04D07B681B68104A15
:10324C0093420CD1BB6823F08003BB603B685B6886
:10325C00BA681343BB607B681B68BA689A607B686A
:10326C00012283F83D207B68002283F83C20002358
:10327C0018461437BD4680BC704700BF002C014077
:10328C000004004080B483B000AF786000BF0C37FE
:10329C00BD4680BC704780B483B000AF786000BF7F
:1032AC000C37BD4680BC704770B500260C4D0D4CDC
:1032BC00641BA410A64209D100F022F800260A4D86
:1032CC000A4C641BA410A64205D170BD55F8043BF2
:1032DC0098470136EEE755F8043B98470136F2E77C
:1032EC004833000848330008483300084C330008C2
:1032FC0003460244934200D1704703F8011BF9E7DF
:10330C00F8B500BFF8BC08BC9E467047F8B500BFC6
:08331C00F8BC08BC9E46704796
:103324000000000000000000010203040607080971
:1033340002030405060708090A0B0C0D0E0F1010F2
:043344000102000082
:043348003101000847
:04334C000D01000867
:10335000320000001E0000001400000000127A007D
:08336000100000000100000054
:0400000508001C953E
:00000001FF
