:020000040800F2
:100000000028002055090008A5070008AB070008D4
:10001000B1070008B7070008BD070008000000008E
:10002000000000000000000000000000C3070008FE
:10003000CF07000800000000DB070008E707000802
:100040009D0900089D0900089D0900089D090008F8
:100050009D0900089D0900089D0900089D090008E8
:100060009D0900089D0900089D0900089D090008D8
:100070009D0900089D0900089D0900089D090008C8
:100080009D0900089D0900089D0900089D090008B8
:100090009D0900089D0900089D0900089D090008A8
:1000A0009D0900089D0900089D0900089D09000898
:1000B000F50700089D090008000000009D090008E0
:1000C0009D09000800000000000000009D090008D4
:1000D000000000009D0900089D09000800000000C4
:1000E0009D0900089D0900089D0900080000000006
:1000F0000000000000000000000000000000000000
:0C01000000000000000000005FF808F1A3
:10010C0010B5054C237833B9044B13B10448AFF345
:10011C0000800123237010BD70000020000000003F
:10012C006C2E000808B5034B1BB103490348AFF311
:10013C00008008BD00000000740000206C2E000838
:10014C0080B483B000AF0023FB715CE0FA793249D4
:10015C0013469B0013449B000B441B68002B4FD091
:10016C00FA792D4913469B0013449B000B4404332E
:10017C001B68002B32D1FA79274913469B00134494
:10018C009B000B440C331B78FA790133D8B222490B
:10019C0013469B0013449B000B440C3302461A700D
:1001AC00FA791D4913469B0013449B000B440833FA
:1001BC001B68002B24D0F979FA7917480B469B0061
:1001CC000B449B00034408331968134813469B00E7
:1001DC0013449B0003440433196011E0FA790E496F
:1001EC0013469B0013449B000B4404331B68591E9D
:1001FC00094813469B0013449B00034404331960C5
:10020C00FB790133FB71FB79272B9FD900BF00BF12
:10021C000C37BD4680BC70479C00002080B487B072
:10022C0000AFF860B9607A600023FB7502E0FB7DDB
:10023C000133FB75FA7D204913469B0013449B0048
:10024C000B441B68002B02D0FB7D272BEFD9FB7DC9
:10025C00282B04D1194B01221A70282327E0FA7D90
:10026C00154913469B0013449B000B44FA681A6013
:10027C00FA7D114913469B0013449B000B44043335
:10028C00BA681A60FA7D0C4913469B0013449B0014
:10029C000B4408337A681A60FA7D074913469B00B1
:1002AC0013449B000B440C3300221A70FB7D184640
:1002BC001C37BD4680BC70479C0000208C00002081
:1002CC0080B582B000AF0023FB7139E0FA79224986
:1002DC0013469B0013449B000B440C331B78002BE0
:1002EC002BD0FA791C4913469B0013449B000B44FA
:1002FC001B689847FA79184913469B0013449B00D6
:10030C000B440C331B78013BD8B2134913469B00AA
:10031C0013449B000B440C3302461A70FA790E49B5
:10032C0013469B0013449B000B4408331B68002BA3
:10033C0003D1FB79184600F011F8FB790133FB71FE
:10034C00FB79272BC2D900F057F800F04FF800BF0B
:10035C000837BD4680BD00BF9C00002080B485B02E
:10036C0000AF78601F497A6813469B0013449B00CA
:10037C000B441B68002B05D11B4B08221A70092358
:10038C00FB7301E00A23FB7316497A6813469B0042
:10039C0013449B000B4400221A6012497A681346DE
:1003AC009B0013449B000B44043300221A600D493C
:1003BC007A6813469B0013449B000B4408330022BD
:1003CC001A6008497A6813469B0013449B000B443F
:1003DC000C3300221A70FB7B18461437BD4680BCC8
:1003EC00704700BF9C0000208C00002080B400AF40
:1003FC0000BFBD4680BC704780B400AF00BFBD4697
:10040C0080BC704780B500AF012202210C4800F07F
:10041C00ABFD012204210A4800F0A6FD01220821AF
:10042C00074800F0A1FD01221021054800F09CFDB9
:10043C0001222021024800F097FD00BF80BD00BFC3
:10044C000008014080B500AF0221024800F0A4FD75
:10045C0000BF80BD0008014080B500AF04210248F8
:10046C0000F09AFD00BF80BD0008014080B500AFD0
:10047C000821024800F090FD00BF80BD000801403B
:10048C0080B500AF1021024800F086FD00BF80BD92
:10049C000008014080B500AF2021024800F07CFD2F
:1004AC0000BF80BD0008014080B582B000AF00F0F5
:1004BC00C9FA78607968034801F072FD00BF08370B
:1004CC00BD4680BD842E000880B500AF00F062FAF6
:1004DC0000F042F800F07CF800F0C6F8174801F084
:1004EC00A1F9FFF78FFF642264211548FFF796FEF0
:1004FC006422C8211348FFF791FE64224FF49671D1
:10050C001148FFF78BFE64224FF4C8710F48FFF7B8
:10051C0085FE00224FF4FA710D48FFF77FFE0A2288
:10052C0000210C48FFF77AFE4FF4FA7200210948BB
:10053C00FFF774FEFFF7C4FEFCE700BFBC0300200E
:10054C005104000865040008790400088D040008B3
:10055C00A1040008B504000880B590B000AF07F105
:10056C00180328220021184601F012FD3B1D002221
:10057C001A605A609A60DA601A610223BB61012327
:10058C00BB621023FB6200237B6307F11803184640
:10059C0000F01CFD0346002B01D000F0A1F80F2346
:1005AC007B600023BB600023FB6000233B610023C6
:1005BC007B613B1D0021184600F088FF0346002B91
:1005CC0001D000F08DF800BF4037BD4680BD000063
:1005DC0080B586B000AF07F1080300221A605A609C
:1005EC009A60DA603B4600221A605A601D4B4FF04D
:1005FC0080421A601B4B41F63F725A60194B002225
:10060C009A60184B0922DA60164B00221A61154BBE
:10061C0000229A61134801F0B5F80346002B01D073
:10062C0000F05EF84FF48053BB6007F108031946E5
:10063C000C4801F033FA0346002B01D000F050F8BF
:10064C0000233B6000237B603B461946054801F0C4
:10065C000BFC0346002B01D000F042F800BF18370A
:10066C00BD4680BDBC03002080B586B000AF07F14D
:10067C00080300221A605A609A60DA60114B9B6979
:10068C00104A43F0040393610E4B9B6903F004037F
:10069C007B607B6800223E210B4800F065FC3E230A
:1006AC00BB600123FB6000233B6102237B6107F1EC
:1006BC0008031946044800F0DDFA00BF1837BD46A0
:1006CC0080BD00BF001002400008014080B582B020
:1006DC0000AF7860FFF734FD00BF0837BD4680BD22
:1006EC0080B400AF72B600BFFEE7000080B485B0E6
:1006FC0000AF154B9B69144A43F001039361124BF5
:10070C009B6903F00103BB60BB680F4BDB690E4AAE
:10071C0043F08053D3610C4BDB6903F080537B6057
:10072C007B680A4B5B68FB60FB6823F0E063FB6053
:10073C00FB6843F08063FB60044AFB68536000BFB6
:10074C001437BD4680BC70470010024000000140C9
:10075C0080B584B000AF78607B681B68B3F1804FC4
:10076C0013D10C4BDB690B4A43F00103D361094BEA
:10077C00DB6903F00103FB60FB68002200211C20F5
:10078C0000F041FA1C2000F05AFA00BF1037BD46A9
:10079C0080BD00BF0010024080B400AFFEE780B403
:1007AC0000AFFEE780B400AFFEE780B400AFFEE719
:1007BC0080B400AFFEE780B400AF00BFBD4680BC84
:1007CC00704780B400AF00BFBD4680BC704780B49A
:1007DC0000AF00BFBD4680BC704780B500AF00F0D5
:1007EC001FF900BF80BD000080B500AF024801F0CA
:1007FC0065F800BF80BD00BFBC03002080B586B08B
:10080C0000AFF860B9607A6000237B610AE0AFF357
:10081C0000800146BB685A1CBA60CAB21A707B6968
:10082C0001337B617A697B689A42F0DB7B681846FE
:10083C001837BD4680BD80B586B000AFF860B96092
:10084C007A6000237B6109E0BB685A1CBA601B7894
:10085C001846AFF300807B6901337B617A697B6852
:10086C009A42F1DB7B6818461837BD4680BD80B4D0
:10087C0083B000AF78604FF0FF3318460C37BD469D
:10088C0080BC704780B483B000AF786039603B683F
:10089C004FF400525A60002318460C37BD4680BCFA
:1008AC00704780B483B000AF7860012318460C37D2
:1008BC00BD4680BC704780B485B000AFF860B960AD
:1008CC007A60002318461437BD4680BC7047000080
:1008DC0080B586B000AF7860144A154BD31A7B6193
:1008EC007B693B61134B1B68002B02D1114B124AE5
:1008FC001A60104B1A687B6813443A699A4207D203
:10090C0001F01CFB03460C221A604FF0FF3309E088
:10091C00084B1B68FB60074B1A687B681344054A3D
:10092C001360FB6818461837BD4680BD00280020B0
:10093C0000040000900000201804002080B400AFD8
:10094C0000BFBD4680BC7047FFF7F8FF0B480C4951
:10095C000C4A002302E0D458C4500433C4188C420F
:10096C00F9D3094A094C002301E013600432A24276
:10097C00FBD301F0E9FAFFF7A7FD70470000002058
:10098C0070000020542F0008700000201804002074
:10099C00FEE7000080B500AF084B1B68074A43F028
:1009AC0010031360032000F023F90F2000F008F867
:1009BC00FFF79CFE0023184680BD00BF00200240BC
:1009CC0080B582B000AF7860124B1A68124B1B785E
:1009DC0019464FF47A73B3FBF1F3B2FBF3F31846F9
:1009EC0000F03BF90346002B01D001230EE07B689D
:1009FC000F2B0AD8002279684FF0FF3000F003F972
:100A0C00064A7B681360002300E001231846083770
:100A1C00BD4680BD0000002008000020040000201E
:100A2C0080B400AF054B1B781A46054B1B6813446A
:100A3C00034A136000BFBD4680BC7047080000200D
:100A4C000404002080B400AF024B1B681846BD465E
:100A5C0080BC70470404002080B485B000AF78607F
:100A6C007B6803F00703FB600C4BDB68BB60BA6868
:100A7C004FF6FF031340BB60FB681A02BB681343BD
:100A8C0043F0BF6343F40033BB60044ABB68D360DC
:100A9C0000BF1437BD4680BC704700BF00ED00E0BE
:100AAC0080B400AF044BDB681B0A03F00703184645
:100ABC00BD4680BC704700BF00ED00E080B483B041
:100ACC0000AF0346FB7197F90730002B0BDBFB796A
:100ADC0003F01F02064997F907305B09012000FA61
:100AEC0002F241F8232000BF0C37BD4680BC704792
:100AFC0000E100E080B483B000AF03463960FB71C5
:100B0C0097F90730002B0ADB3B68DAB20C4997F9EE
:100B1C0007301201D2B20B4483F800230AE03B6881
:100B2C00DAB20849FB7903F00F03043B1201D2B28D
:100B3C000B441A7600BF0C37BD4680BC704700BF13
:100B4C0000E100E000ED00E080B489B000AFF86097
:100B5C00B9607A60FB6803F00703FB61FB69C3F1C2
:100B6C000703042B28BF0423BB61FB690433062B4A
:100B7C0002D9FB69033B00E000237B614FF0FF329D
:100B8C00BB6902FA03F3DA43BB681A407B699A40EB
:100B9C004FF0FF317B6901FA03F3D9437B680B40BB
:100BAC00134318462437BD4680BC704780B582B0CD
:100BBC0000AF78607B68013BB3F1807F01D30123E8
:100BCC000FE00A4A7B68013B53600F214FF0FF3066
:100BDC00FFF790FF054B00229A60044B07221A6026
:100BEC00002318460837BD4680BD00BF10E000E06A
:100BFC0080B582B000AF78607868FFF72DFF00BF3A
:100C0C000837BD4680BD80B586B000AF0346B960DD
:100C1C007A60FB7300237B61FFF742FF78617A688F
:100C2C00B9687869FFF790FF024697F90F301146C3
:100C3C001846FFF75FFF00BF1837BD4680BD80B573
:100C4C0082B000AF0346FB7197F907301846FFF7E7
:100C5C0035FF00BF0837BD4680BD80B582B000AF00
:100C6C0078607868FFF7A2FF034618460837BD4640
:100C7C0080BD000080B48BB000AF78603960002379
:100C8C007B6200233B6248E101227B6A02FA03F398
:100C9C00FB613B681B68FA691340BB61BA69FB696D
:100CAC009A4240F037813B685B68A34A93425ED01E
:100CBC00A14A934275D8A14A934258D09F4A934275
:100CCC006FD89F4A934252D09D4A934269D89D4A0D
:100CDC0093424CD09B4A934263D89B4A934246D052
:100CEC00994A93425DD8122B2AD8122B59D801A2BB
:100CFC0052F823F07B0D0008550D0008670D000815
:100D0C00A90D0008AF0D0008AF0D0008AF0D0008CD
:100D1C00AF0D0008AF0D0008AF0D0008AF0D0008B7
:100D2C00AF0D0008AF0D0008AF0D0008AF0D0008A7
:100D3C00AF0D0008AF0D00085D0D0008710D000827
:100D4C00824A934213D02CE03B68DB683B6229E07B
:100D5C003B68DB6804333B6224E03B68DB680833A8
:100D6C003B621FE03B68DB680C333B621AE03B687C
:100D7C009B68002B02D104233B6213E03B689B6809
:100D8C00012B05D108233B627B68FA691A6109E0E3
:100D9C0008233B627B68FA695A6103E000233B62DB
:100DAC0000E000BFBB69FF2B01D87B6801E07B68CA
:100DBC0004337B61BB69FF2B02D87B6A9B0002E08A
:100DCC007B6A083B9B003B617B691A680F213B697E
:100DDC0001FA03F3DB431A40396A3B6901FA03F366
:100DEC001A437B691A603B685B6803F08053002BE5
:100DFC0000F09080564B9B69554A43F00103936178
:100E0C00534B9B6903F00103BB60BB68514A7B6A7F
:100E1C009B08023352F82330FB607B6A03F0030318
:100E2C009B000F2202FA03F3DB43FA681340FB60CA
:100E3C007B68494A93420DD07B68484A934207D05D
:100E4C007B68474A934201D1022304E0032302E06A
:100E5C00012300E000237A6A02F00302920093401F
:100E6C00FA681343FB603B497B6A9B080233FA68C0
:100E7C0041F823203B685B6803F48013002B06D0F9
:100E8C00384B9A683749BB6913438B6006E0354B86
:100E9C009A68BB69DB43334913408B603B685B68E2
:100EAC0003F40013002B06D02E4BDA682D49BB69D6
:100EBC001343CB6006E02B4BDA68BB69DB43294953
:100ECC001340CB603B685B6803F40033002B06D007
:100EDC00244B5A682349BB6913434B6006E0214BF2
:100EEC005A68BB69DB431F4913404B603B685B6826
:100EFC0003F48033002B06D01A4B1A681949BB69CE
:100F0C0013430B6006E0174B1A68BB69DB431549AA
:100F1C0013400B607B6A01337B623B681A687B6A07
:100F2C0022FA03F3002B7FF4AFAE00BF00BF2C37C7
:100F3C00BD4680BC704700BF00003210000031106D
:100F4C0000002210000021100000121000001110EF
:100F5C00001002400000014000080140000C01405C
:100F6C00001001400004014080B483B000AF7860F1
:100F7C000B467B8013467B707B78002B03D07A88E2
:100F8C007B681A6103E07B881A047B681A6100BFD6
:100F9C000C37BD4680BC704780B485B000AF78601C
:100FAC000B467B807B68DB68FB607A88FB681340B0
:100FBC001A04FB68D9437B880B401A437B681A617F
:100FCC0000BF1437BD4680BC7047000080B586B0AA
:100FDC0000AF78607B68002B01D101236CE27B6849
:100FEC001B6803F00103002B00F08780924B5B68B9
:100FFC0003F00C03042B0CD08F4B5B6803F00C0339
:10100C00082B12D18C4B5B6803F48033B3F5803F13
:10101C000BD1894B1B6803F40033002B6CD07B681D
:10102C005B68002B68D1012346E27B685B68B3F5F3
:10103C00803F06D1804B1B687F4A43F4803313609A
:10104C002EE07B685B68002B0CD17B4B1B687A4ACB
:10105C0023F480331360784B1B68774A23F4802386
:10106C0013601DE07B685B68B3F5A02F0CD1724B4D
:10107C001B68714A43F4802313606F4B1B686E4AE4
:10108C0043F4803313600BE06B4B1B686A4A23F408
:10109C0080331360684B1B68674A23F4802313600A
:1010AC007B685B68002B13D0FFF7CCFC386108E041
:1010BC00FFF7C8FC02463B69D31A642B01D9032302
:1010CC00FAE15D4B1B6803F40033002BF0D014E005
:1010DC00FFF7B8FC386108E0FFF7B4FC02463B6947
:1010EC00D31A642B01D90323E6E1534B1B6803F499
:1010FC000033002BF0D100E000BF7B681B6803F0CD
:10110C000203002B63D04C4B5B6803F00C03002BE9
:10111C000BD0494B5B6803F00C03082B1CD1464BDE
:10112C005B6803F48033002B16D1434B1B6803F030
:10113C000203002B05D07B681B69012B01D0012316
:10114C00BAE13D4B1B6823F0F8027B685B69DB005E
:10115C00394913430B603AE07B681B69002B20D0A4
:10116C00364B01221A60FFF76DFC386108E0FFF77F
:10117C0069FC02463B69D31A022B01D903239BE17C
:10118C002D4B1B6803F00203002BF0D02A4B1B687D
:10119C0023F0F8027B685B69DB00274913430B6083
:1011AC0015E0264B00221A60FFF74CFC386108E072
:1011BC00FFF748FC02463B69D31A022B01D90323E3
:1011CC007AE11D4B1B6803F00203002BF0D17B6806
:1011DC001B6803F00803002B3AD07B689B69002B3B
:1011EC0019D0174B01221A60FFF72CFC386108E06C
:1011FC00FFF728FC02463B69D31A022B01D90323C3
:10120C005AE10D4B5B6A03F00203002BF0D0012076
:10121C0000F09AFA1CE00A4B00221A60FFF712FC4D
:10122C0038610FE0FFF70EFC02463B69D31A022B24
:10123C0008D9032340E100BF0010024000004242E5
:10124C00800442429E4B5B6A03F00203002BE9D1FF
:10125C007B681B6803F00403002B00F0A6800023BE
:10126C00FB75974BDB6903F08053002B0DD1944B2E
:10127C00DB69934A43F08053D361914BDB6903F0F4
:10128C008053BB60BB680123FB758E4B1B6803F45A
:10129C008073002B18D18B4B1B688A4A43F48073E4
:1012AC001360FFF7CFFB386108E0FFF7CBFB02467A
:1012BC003B69D31A642B01D90323FDE0814B1B68D6
:1012CC0003F48073002BF0D07B68DB68012B06D114
:1012DC007B4B1B6A7A4A43F0010313622DE07B6857
:1012EC00DB68002B0CD1764B1B6A754A23F001038B
:1012FC001362734B1B6A724A23F0040313621CE0E3
:10130C007B68DB68052B0CD16D4B1B6A6C4A43F078
:10131C00040313626A4B1B6A694A43F001031362AC
:10132C000BE0674B1B6A664A23F001031362644BA4
:10133C001B6A634A23F0040313627B68DB68002B8F
:10134C0015D0FFF77FFB38610AE0FFF77BFB024605
:10135C003B69D31A41F28832934201D90323ABE0A3
:10136C00574B1B6A03F00203002BEED014E0FFF77F
:10137C0069FB38610AE0FFF765FB02463B69D31A4B
:10138C0041F28832934201D9032395E04C4B1B6AFE
:10139C0003F00203002BEED1FB7D012B05D1484B52
:1013AC00DB69474A23F08053D3617B68DB69002BF0
:1013BC0000F08180424B5B6803F00C03082B61D07A
:1013CC007B68DB69022B46D13F4B00221A60FFF78A
:1013DC0039FB386108E0FFF735FB02463B69D31A4D
:1013EC00022B01D9032367E0354B1B6803F0007314
:1013FC00002BF0D17B681B6AB3F5803F08D1304BD2
:10140C005B6823F400327B689B682D4913434B6067
:10141C002B4B5B6823F474127B68196A7B685B6ADC
:10142C000B43274913434B60274B01221A60FFF7EC
:10143C0009FB386108E0FFF705FB02463B69D31A4C
:10144C00022B01D9032337E01D4B1B6803F00073FB
:10145C00002BF0D02FE01C4B00221A60FFF7F2FAA1
:10146C00386108E0FFF7EEFA02463B69D31A022B0B
:10147C0001D9032320E0124B1B6803F00073002BEF
:10148C00F0D118E07B68DB69012B01D1012313E05B
:10149C000B4B5B68FB60FB6803F480327B681B6A58
:1014AC009A4206D1FB6803F470127B685B6A9A421D
:1014BC0001D0012300E0002318461837BD4680BD3B
:1014CC0000100240007000406000424280B584B0C1
:1014DC0000AF786039607B68002B01D10123D0E02C
:1014EC006A4B1B6803F007033A689A4210D9674BA2
:1014FC001B6823F0070265493B6813430B60634B81
:10150C001B6803F007033A689A4201D00123B8E044
:10151C007B681B6803F00203002B20D07B681B68E0
:10152C0003F00403002B05D0594B5B68584A43F475
:10153C00E06353607B681B6803F00803002B05D045
:10154C00534B5B68524A43F460535360504B5B6897
:10155C0023F0F0027B689B684D4913434B607B681A
:10156C001B6803F00103002B40D07B685B68012BE8
:10157C0007D1474B1B6803F40033002B15D1012313
:10158C007FE07B685B68022B07D1414B1B6803F043
:10159C000073002B09D1012373E03D4B1B6803F052
:1015AC000203002B01D101236BE0394B5B6823F064
:1015BC0003027B685B68364913434B60FFF742FAC2
:1015CC00F8600AE0FFF73EFA0246FB68D31A41F2D4
:1015DC008832934201D9032353E02D4B5B6803F00F
:1015EC000C027B685B689B009A42EBD1274B1B6813
:1015FC0003F007033A689A4210D2244B1B6823F07D
:10160C00070222493B6813430B60204B1B6803F015
:10161C0007033A689A4201D0012332E07B681B68C9
:10162C0003F00403002B08D0194B5B6823F4E06231
:10163C007B68DB68164913434B607B681B6803F0BF
:10164C000803002B09D0124B5B6823F460527B68B3
:10165C001B69DB000E4913434B6000F021F8024676
:10166C000B4B5B681B0903F00F030A49CB5C22FA96
:10167C0003F3094A1360094B1B681846FFF7A0F9DE
:10168C00002318461037BD4680BD00BF0020024025
:10169C0000100240902E00080000002004000020E2
:1016AC0080B487B000AF0023FB600023BB60002335
:1016BC007B6100237B6000233B611E4B5B68FB60FE
:1016CC00FB6803F00C03042B02D0082B03D027E09B
:1016DC00194B3B6127E0FB689B0C03F00F03174A87
:1016EC00D35C7B60FB6803F48033002B10D0114B70
:1016FC005B685B0C03F00103114AD35CBB607B6835
:10170C000D4A02FB03F2BB68B2FBF3F37B6104E00E
:10171C007B680C4A02FB03F37B617B693B6102E053
:10172C00054B3B6100BF3B6918461C37BD4680BC6E
:10173C00704700BF0010024000127A00A02E000873
:10174C00B02E000800093D0080B485B000AF786071
:10175C000A4B1B680A4AA2FB03235B0A7A6802FB4A
:10176C0003F3FB6000BFFB685A1EFA60002BF9D133
:10177C0000BF00BF1437BD4680BC7047000000207E
:10178C00D34D621080B582B000AF78607B68002BBF
:10179C0001D1012341E07B6893F83D30DBB2002B93
:1017AC0006D17B68002283F83C207868FEF7D0FFD6
:1017BC007B68022283F83D207B681A687B680433BF
:1017CC001946104600F056FA7B68012283F8462031
:1017DC007B68012283F83E207B68012283F83F203E
:1017EC007B68012283F840207B68012283F841202A
:1017FC007B68012283F842207B68012283F8432016
:10180C007B68012283F844207B68012283F8452001
:10181C007B68012283F83D20002318460837BD461B
:10182C0080BD000080B485B000AF78607B6893F811
:10183C003D30DBB2012B01D0012335E07B68022265
:10184C0083F83D207B681B68DA687B681B6842F074
:10185C000102DA607B681B68164A934209D07B68E8
:10186C001B68B3F1804F04D07B681B68124A93420B
:10187C0011D17B681B689B6803F00703FB60FB6856
:10188C00062B10D07B681B681A687B681B6842F0BB
:10189C0001021A6007E07B681B681A687B681B688A
:1018AC0042F001021A60002318461437BD4680BC72
:1018BC00704700BF002C01400004004080B584B08C
:1018CC0000AF78607B681B68DB68FB607B681B681B
:1018DC001B69BB60BB6803F00203002B20D0FB68C4
:1018EC0003F00203002B1BD07B681B686FF0020215
:1018FC001A617B6801221A777B681B689B6903F06D
:10190C000303002B03D0786800F098F905E07868A1
:10191C0000F08BF9786800F09AF97B6800221A774E
:10192C00BB6803F00403002B20D0FB6803F0040316
:10193C00002B1BD07B681B686FF004021A617B685C
:10194C0002221A777B681B689B6903F44073002B97
:10195C0003D0786800F072F905E0786800F065F95A
:10196C00786800F074F97B6800221A77BB6803F082
:10197C000803002B20D0FB6803F00803002B1BD0BE
:10198C007B681B686FF008021A617B6804221A7767
:10199C007B681B68DB6903F00303002B03D07868BA
:1019AC0000F04CF905E0786800F03FF9786800F039
:1019BC004EF97B6800221A77BB6803F01003002BEA
:1019CC0020D0FB6803F01003002B1BD07B681B6836
:1019DC006FF010021A617B6808221A777B681B680B
:1019EC00DB6903F44073002B03D0786800F026F910
:1019FC0005E0786800F019F9786800F028F97B6840
:101A0C0000221A77BB6803F00103002B0CD0FB6893
:101A1C0003F00103002B07D07B681B686FF00102F9
:101A2C001A617868FEF752FEBB6803F08003002B46
:101A3C000CD0FB6803F08003002B07D07B681B687D
:101A4C006FF080021A61786800F06FFABB6803F0DF
:101A5C004003002B0CD0FB6803F04003002B07D095
:101A6C007B681B686FF040021A61786800F0F8F828
:101A7C00BB6803F02003002B0CD0FB6803F02003A1
:101A8C00002B07D07B681B686FF020021A61786806
:101A9C0000F042FA00BF1037BD4680BD80B584B05F
:101AAC0000AF786039600023FB737B6893F83C309F
:101ABC00012B01D10223B4E07B68012283F83C2086
:101ACC007B68022283F83D207B681B689B68BB60A7
:101ADC00BB6823F07703BB60BB6823F47F43BB6018
:101AEC007B681B68BA689A603B681B68B3F5005F3B
:101AFC003ED0B3F5005F00F28780B3F5805F00F055
:101B0C008680B3F5805F7FD8702B1AD0702B7BD872
:101B1C00602B50D0602B77D8502B3CD0502B73D8E7
:101B2C00402B58D0402B6FD8302B64D0302B6BD837
:101B3C00202B60D0202B67D8002B5CD0102B5AD0D8
:101B4C0062E07B6818683B6899683B685A683B6838
:101B5C00DB6800F06AF97B681B689B68BB60BB683C
:101B6C0043F07703BB607B681B68BA689A604FE0F0
:101B7C007B6818683B6899683B685A683B68DB6807
:101B8C0000F053F97B681B689A687B681B6842F409
:101B9C0080429A603CE07B6818683B6859683B68F7
:101BAC00DB681A4600F0CAF87B681B68502118469F
:101BBC0000F021F92CE07B6818683B6859683B6899
:101BCC00DB681A4600F0E8F87B681B686021184651
:101BDC0000F011F91CE07B6818683B6859683B6899
:101BEC00DB681A4600F0AAF87B681B68402118468F
:101BFC0000F001F90CE07B681A683B681B68194619
:101C0C00104600F0F8F803E00123FB7300E000BF7E
:101C1C007B68012283F83D207B68002283F83C20FE
:101C2C00FB7B18461037BD4680BD80B483B000AF37
:101C3C00786000BF0C37BD4680BC704780B483B061
:101C4C0000AF786000BF0C37BD4680BC704780B4D5
:101C5C0083B000AF786000BF0C37BD4680BC7047C6
:101C6C0080B483B000AF786000BF0C37BD4680BC39
:101C7C007047000080B485B000AF786039607B6835
:101C8C001B68FB607B682B4A934207D07B68B3F1DF
:101C9C00804F03D07B68284A934208D1FB6823F01D
:101CAC007003FB603B685B68FA681343FB607B68FE
:101CBC00204A934207D07B68B3F1804F03D07B68F6
:101CCC001D4A934208D1FB6823F44073FB603B68C8
:101CDC00DB68FA681343FB60FB6823F080023B6807
:101CEC005B691343FB607B68FA681A603B689A680F
:101CFC007B68DA623B681A687B689A627B680D4A7B
:101D0C00934203D13B681A697B681A637B68012292
:101D1C005A617B681B6903F00103002B05D07B68BB
:101D2C001B6923F001027B681A6100BF1437BD46A2
:101D3C0080BC7047002C01400004004080B487B088
:101D4C0000AFF860B9607A60FB681B6A7B61FB6866
:101D5C001B6A23F00102FB681A62FB689B693B61FA
:101D6C003B6923F0F0033B617B681B013A69134329
:101D7C003B617B6923F00A037B617A69BB6813437F
:101D8C007B61FB683A699A61FB687A691A6200BFE9
:101D9C001C37BD4680BC704780B487B000AFF8607C
:101DAC00B9607A60FB681B6A7B61FB681B6A23F075
:101DBC001002FB681A62FB689B693B613B6923F468
:101DCC0070433B617B681B033A6913433B617B693E
:101DDC0023F0A0037B61BB681B017A6913437B6111
:101DEC00FB683A699A61FB687A691A6200BF1C3712
:101DFC00BD4680BC704780B485B000AF7860396058
:101E0C007B689B68FB60FB6823F07003FB603A689F
:101E1C00FB68134343F00703FB607B68FA689A6026
:101E2C0000BF1437BD4680BC704780B487B000AF8C
:101E3C00F860B9607A603B60FB689B687B617B698A
:101E4C0023F47F437B613B681A027B681A43BB68AF
:101E5C0013437A6913437B61FB687A699A6000BF0C
:101E6C001C37BD4680BC704780B485B000AF78602D
:101E7C0039607B6893F83C30012B01D1022341E09F
:101E8C007B68012283F83C207B68022283F83D208A
:101E9C007B681B685B68FB607B681B689B68BB602E
:101EAC00FB6823F07003FB603B681B68FA68134304
:101EBC00FB607B681B68FA685A607B681B68144A75
:101ECC00934209D07B681B68B3F1804F04D07B68C8
:101EDC001B68104A93420CD1BB6823F08003BB6093
:101EEC003B685B68BA681343BB607B681B68BA6865
:101EFC009A607B68012283F83D207B68002283F87E
:101F0C003C20002318461437BD4680BC704700BFE8
:101F1C00002C01400004004080B483B000AF786016
:101F2C0000BF0C37BD4680BC704780B483B000AF97
:101F3C00786000BF0C37BD4680BC7047014B1868F9
:101F4C00704700BF0C00002070B500260C4D0D4CE6
:101F5C00641BA410A64209D100F082FF00260A4D92
:101F6C000A4C641BA410A64205D170BD55F8043B65
:101F7C0098470136EEE755F8043B98470136F2E7EF
:101F8C004C2F00084C2F00084C2F0008502F000835
:101F9C0003460244934200D1704703F8011BF9E752
:101FAC000FB40A4B13B51C6824B1A36913B92046AE
:101FBC0000F066F805AB2046049AA168019300F086
:101FCC0081F902B0BDE8104004B070470C0000204D
:101FDC00002310B50446C0E90033C0E90433836024
:101FEC0081814366C2818361194608225C30FFF708
:101FFC00CFFF054B24626362044BA362044BE36284
:10200C00044B236310BD00BF7D2800089F280008E7
:10201C00D7280008FB280008014900F0AFB800BF22
:10202C00D52B000870B568254A1E55430E4605F1A0
:10203C00740100F0C5F8044640B10021C0E9001657
:10204C000C30A06005F16802FFF7A2FF204670BDBE
:10205C00014800F0B3B800BF10040020014800F0A4
:10206C00AEB800BF10040020014800F0A7B800BFB4
:10207C000B040020014800F0A2B800BF0B040020A4
:10208C0010B50446FFF7F0FFA3691BB1BDE8104083
:10209C00FFF7F0BFC4E912332365134B134A1B68D7
:1020AC00A262A34208BF0123204608BFA36100F02F
:1020BC001FF86060204600F01BF8A060204600F07E
:1020CC0017F800220421E0606068FFF781FF01220D
:1020DC000921A068FFF77CFF02221221E068FFF7BC
:1020EC0077FF0123A361D1E7B42E00082520000857
:1020FC00F8B50746FFF7ACFF1E4B1E68B36913B962
:10210C003046FFF7BDFF4836D6E90134013B03D515
:10211C0033680BB33668F7E7B4F90C50D5B9164BE6
:10212C0004F15800E360656600F047F8FFF796FF8E
:10213C0008222946C4E90155C4E904552560A56166
:10214C0004F15C00FFF724FFC4E90D55C4E91255F6
:10215C002046F8BD6834D9E704213846FFF762FF02
:10216C00044630600028D5D1FFF778FF0C233B6084
:10217C00EEE700BFB42E00080100FFFF2DE9F84385
:10218C0006468846002700F14804D4E90195B9F1C8
:10219C00010905D52468002CF7D13846BDE8F88331
:1021AC00AB89012B07D9B5F90E30013303D0294681
:1021BC003046C04707436835E9E7704770477047BA
:1021CC00F8B5CD1C25F0030508350C2D38BF0C25B2
:1021DC00002D064601DBA94203D90C2333600020F5
:1021EC00F8BD00F0B1FD21490A6814469CB9204F96
:1021FC003B6823B92146304600F02AFB386029465B
:10220C00304600F025FB431C23D10C2330463360B1
:10221C0000F0A0FDE3E723685B1B17D40B2B03D95D
:10222C0023601C44256004E06368A2420CBF0B6071
:10223C005360304600F08EFD04F10B00231D20F09E
:10224C000700C21ACCD01B1AA350C9E722466468F7
:10225C00CCE7C41C24F00304A042E3D0211A30467E
:10226C0000F0F6FA0130DDD1CFE700BF940000207A
:10227C0098000020936810B4013B002B936007DAA0
:10228C009469A34201DB0A2902D110BC00F034BBD3
:10229C001368581C10601970084610BC7047F8B5CC
:1022AC0006460F461446D518AC4201D1002007E073
:1022BC003A46304614F8011BFFF7DCFF431CF3D100
:1022CC00F8BD00002DE9F04F0D4614469846064621
:1022DC009DB018B183690BB9FFF7D2FE894B9D42B3
:1022EC001BD175686B6ED90705D4AB899A0502D4DE
:1022FC00A86DFFF763FFAB891B0701D52B69EBB901
:10230C002946304600F05CFBC0B16B6EDC070ED585
:10231C004FF0FF301DB0BDE8F08F7B4B9D4201D1DB
:10232C00B568DFE7794B9D4208BFF568DAE7AB8902
:10233C009805EDD4A86DFFF742FFE9E70023099358
:10234C0020238DF8293030234FF00109CDF80C8073
:10235C00DFF8BC818DF82A3023469A4613F8012BFE
:10236C000AB1252AF9D1BAEB040B0BD05B462246F5
:10237C0029463046FFF793FF013000F0AA80099AF6
:10238C005A4409929AF80030002B00F0A2800023E6
:10239C004FF0FF32CDE905230AF1010A04930793AC
:1023AC008DF853301A935446052214F8011B5848E3
:1023BC0000F0BCFC049AD8B9D10644BF20238DF898
:1023CC005330130744BF2B238DF853309AF8003049
:1023DC002A2B15D0544600204FF00A0C079A2146A0
:1023EC0011F8013B303B092B4ED9B0B1079214E0E8
:1023FC00A0EB080309FA03F31343A2460493D2E7B4
:10240C00039B191D1B680391002BBBBF5B4242F061
:10241C00020207930793B8BF049223782E2B0CD19A
:10242C0063782A2B35D1039B02341A1D1B68039247
:10243C00002BB8BF4FF0FF330593DFF8E4A0032265
:10244C005046217800F072FC40B14023A0EB0A000A
:10245C0003FA00F0049B01340343049314F8011BAA
:10246C0006222C488DF8281000F060FC00283FD084
:10247C00294B1BBB039B073323F007030833039340
:10248C00099B3B44099367E70C4601200CFB023285
:10249C00A5E700234FF00A0C19460134059320469A
:1024AC0010F8012B303A092A03D9002BC5D005911D
:1024BC00C3E7044601230CFB0121F0E703AB0093B7
:1024CC002A463046154B04A9AFF300800746781C0A
:1024DC00D6D16B6ED90705D4AB899A0502D4A86DF9
:1024EC00FFF76DFEAB895B063FF512AF099811E75C
:1024FC0003AB00932A463046084B04A900F082F83F
:10250C00E4E700BFD82E0008F82E0008B82E00080B
:10251C00182F0008222F000800000000AB22000832
:10252C001E2F00082DE9F047164699468A680B695C
:10253C0007469342B8BF1346336091F843200C46CC
:10254C00DDF820800AB1013333602368990642BF5D
:10255C00336802333360256815F0060506D104F1A3
:10256C00190AE36832689B1AAB4228DC94F84320C2
:10257C00131E226818BF012392062DD449463846F3
:10258C0004F14302C047013020D02368E56803F012
:10259C000603042B18BF002532684FF00006A36811
:1025AC0008BFAD1A226908BF25EAE5759342C4BF7E
:1025BC009B1AED181A34B5421AD1002008E00123F9
:1025CC00524649463846C047013003D14FF0FF30E0
:1025DC00BDE8F0870135C4E73020E11881F84300ED
:1025EC005A1C94F845102244023382F84310C5E774
:1025FC000123224649463846C0470130E6D0013611
:10260C00D9E700002DE9FF470C46277E9146782F2D
:10261C0080469A460C9904F1430207D8622F0AD8D7
:10262C00002F00F0D980582F00F0A48004F142064E
:10263C0084F842703AE0A7F16303152BF6D801A099
:10264C0050F823F0A9260008BD26000839260008FA
:10265C00392600083926000839260008BD2600084E
:10266C0039260008392600083926000839260008C2
:10267C00CB270008ED260008AD27000839260008F6
:10268C0039260008ED27000839260008ED26000839
:10269C003926000839260008B52700080B6804F114
:1026AC0042061A1D1B680A6084F842300123A4E01C
:1026BC00256808682E0600F104030AD505680B602E
:1026CC00002D03DA2D236D4284F843300A235E4833
:1026DC0019E015F0400F05680B6018BF2DB2EFE73D
:1026EC000B682568181D0860280601D51D6802E0D6
:1026FC006906FBD51D886F2F0CBF08230A2352488F
:10270C00002184F843106668002EA8BF2168A660DB
:10271C00A4BF21F0040121600DB9002E4DD0164646
:10272C00B5FBF3F103FB1157C75D06F8017D2F468E
:10273C00BB420D46F4D9082B0BD12368DF0708D513
:10274C00236961689942DEBF302306F8013C06F12B
:10275C00FF36921B22614B4621464046CDF800A025
:10276C0003AAFFF7DFFE01304CD14FF0FF3004B06D
:10277C00BDE8F087344884F845700E68236856F835
:10278C00045B1F060E6014D5D90744BF43F0200329
:10279C0023601DB9236823F0200323601023AFE7C7
:1027AC00236843F0200323607823284884F84530BD
:1027BC00E3E75E0648BFADB2E6E71646BBE70B683B
:1027CC0026681D1D60690D6035061B6801D51860F3
:1027DC0002E07106FBD51880002316462361BAE788
:1027EC000B681A1D0A601E6800213046626800F0F2
:1027FC009DFA08B1801B606063682361002384F834
:10280C004330A8E73246494640462369D047013059
:10281C00ABD023689B0713D4E068039B9842B8BFE6
:10282C001846A4E70123324649464046D0470130BA
:10283C009BD00135E36803995B1AAB42F2DCEBE702
:10284C00002504F11906F5E7292F00083A2F000896
:10285C0038B50023054D044608462B60FEF738F8C2
:10286C00431C02D12B6803B1236038BD1404002033
:10287C0010B50C46B1F90E1000F0BEFA0028ABBF33
:10288C00636DA3891B1823F48053ACBF6365A381CC
:10289C0010BD2DE9F0411F468B890546DB050C4622
:1028AC00164605D502230022B1F90E1000F0C8F926
:1028BC00A389324623F48053A38128463B46B4F9BE
:1028CC000E10BDE8F04100F069B810B50C46B1F936
:1028DC000E1000F0B5F9431CA38915BF606523F4F5
:1028EC00805343F48053A38118BFA38110BDB1F969
:1028FC000E1000F0D3B80000F8B50E46144605468D
:10290C0018B183690BB9FFF7BBFB214B9C422BD150
:10291C006C68A369A360A3891A072FD523696BB3CD
:10292C0023692068F6B2C01A63693746834204DC17
:10293C002146284600F048F930BBA3680130013B22
:10294C00A36023685A1C22601E706369834204D002
:10295C00A389DB0706D50A2E04D12146284600F0B0
:10296C0033F988B93846F8BD0A4B9C4201D1AC68A2
:10297C00CFE7094B9C4208BFEC68CAE721462846C2
:10298C0000F01EF80028CBD04FF0FF37EAE700BF6D
:10299C00D82E0008F82E0008B82E000838B50446CA
:1029AC00084611460022054D2A601A46FDF743FFE2
:1029BC00431C02D12B6803B1236038BD14040020E2
:1029CC00324B70B51D6806460C4625B1AB6913B980
:1029DC002846FFF755FB2E4B9C420FD16C68A38900
:1029EC00B4F90C2019072CD4DD0611D4092333605B
:1029FC0042F040034FF0FF30A3813EE0254B9C4258
:102A0C0001D1AC68EBE7244B9C4208BFEC68E6E7CD
:102A1C00580712D5616B41B104F14403994202D0BD
:102A2C00304600F09DF900236363A38923F024034F
:102A3C00A3810023636023692360A38943F0080307
:102A4C00A38123694BB9A38903F42073B3F5007FE9
:102A5C0003D02146304600F029F9A089B4F90C20A6
:102A6C0010F001030AD00023A36063695B42A361E9
:102A7C00236943B910F08000BAD170BD810758BFEB
:102A8C006369A360F4E70020F7E700BF0C000020A7
:102A9C00D82E0008F82E0008B82E000838B50023F0
:102AAC00054D044608462B60FDF7E1FE431C02D1A0
:102ABC002B6803B1236038BD140400208A892DE9EA
:102ACC00F041054610070C4658D44B68002B05DC2A
:102ADC000B6C002B02DC0020BDE8F081E66A002EB6
:102AEC00F9D0002312F480522F682B6032D0606D25
:102AFC00A3895A0705D56368C01A636B0BB1236CA5
:102B0C00C01A00230246E66A2846216AB047431CD5
:102B1C00A38906D129681D292CD82A4ACA40D60770
:102B2C0028D5002262602269D904226004D5421C97
:102B3C0001D12B6803B96065616B2F600029CAD085
:102B4C0004F14403994202D0284600F009F9002010
:102B5C006063C1E7216A01232846B047411CC7D1F5
:102B6C002B68002BC4D01D2B01D0162B01D12F604C
:102B7C00B1E7A38943F04003A381ADE70F69002FB0
:102B8C00A9D0930718BF00230E6808BF4B69A6EBAA
:102B9C0007080F608B60B8F1000F9CDD43463A4686
:102BAC002846216AA66AB047002806DCA3894FF0A4
:102BBC00FF3043F04003A3818EE70744A8EB0008E5
:102BCC00E9E700BF0100402038B50B6905460C460B
:102BDC0013B90025284638BD18B183690BB9FFF726
:102BEC004FFA144B9C421BD16C68B4F90C30002B7F
:102BFC00EFD0626ED00704D4990502D4A06DFFF714
:102C0C00DDFA28462146FFF759FF636E0546DA07C1
:102C1C00E0D4A3899B05DDD4A06DFFF7D0FAD9E7EA
:102C2C00054B9C4201D1AC68DFE7044B9C4208BFCA
:102C3C00EC68DAE7D82E0008F82E0008B82E000849
:102C4C0038B50446084611460022054D2A601A463E
:102C5C00FDF731FE431C02D12B6803B1236038BD54
:102C6C001404002070B50E46B1F90E10144600295C
:102C7C001D4696B007DA00232B60B3891A0610D4D0
:102C8C004FF480630EE06A4600F0C8F80028F2DBCF
:102C9C00019A02F47042A2F500535A425A412A603A
:102CAC00EEE740230020236016B070BD8B8973B50E
:102CBC009D0706460C4607D504F1470323602361A4
:102CCC000123636102B070BD6A4601ABFFF7CAFF16
:102CDC00009905463046FFF773FA48B9B4F90C3041
:102CEC009A05EFD423F0030343F00203A381E3E737
:102CFC000D4BB362A389206043F08003A381009B3A
:102D0C0020616361019B5BB13046B4F90E1000F099
:102D1C0097F828B1A38923F0030343F00103A3819F
:102D2C00A0890543A581CDE725200008034610B5F1
:102D3C00C9B202449342184601D1002003E0047842
:102D4C0001338C42F6D110BD0148FFF737BA00BFF2
:102D5C000C0400200148FFF732BA00BF0C0400201D
:102D6C0038B50546002943D051F8043C0C1F002B04
:102D7C00B8BFE418FFF7E8FF1E4A1368104633B9D2
:102D8C00636014602846BDE83840FFF7E3BFA342F8
:102D9C000AD921686218934201BF1A685B685218FD
:102DAC00226063600460EDE71A465B680BB1A342D6
:102DBC00FAD911685018A0420BD120680144501860
:102DCC0083421160DED118685B6801441160536066
:102DDC00D8E702D90C232B60D4E7206821188B424A
:102DEC0001BF19685B680918216063605460C9E70A
:102DFC0038BD00BF9400002038B504460846114683
:102E0C000022054D2A601A46FDF7F8FC431C02D13E
:102E1C002B6803B1236038BD1404002038B500239F
:102E2C00064D0446084611462B60FDF72BFD431C4E
:102E3C0002D12B6803B1236038BD00BF14040020FD
:102E4C0038B50023054D044608462B60FDF729FDD7
:102E5C00431C02D12B6803B1236038BD140400203D
:102E6C00F8B500BFF8BC08BC9E467047F8B500BF6B
:082E7C00F8BC08BC9E4670473B
:102E840054696D653A20256C750A00000000000045
:102E940000000000010203040607080902030405F8
:102EA400060708090A0B0C0D0E0F10100102000092
:102EB40010000020000000000000000000000000DE
:102EC40000000000000000000000000000000000FE
:102ED40000000000000000000000000000000000EE
:102EE40000000000000000000000000000000000DE
:102EF40000000000000000000000000000000000CE
:102F040000000000000000000000000000000000BD
:102F140000000000232D302B2000686C4C006566F7
:102F24006745464700303132333435363738394116
:102F3400424344454600303132333435363738392C
:082F4400616263646566000030
:042F4C003101000847
:042F50000D01000867
:102F540000127A00100000000100000010000020A0
:102F640000000000D82E0008F82E0008B82E000833
:102F7400000000000000000000000000000000004D
:102F8400000000000000000000000000000000003D
:102F9400000000000000000000000000000000002D
:102FA400000000000000000000000000000000001D
:102FB400000000000000000000000000000000000D
:040000050800095591
:00000001FF
