:020000040800F2
:10000000002800201D230008AD220008B3220008AC
:10001000B9220008BF220008C52200080000000025
:10002000000000000000000000000000CB220008DB
:10003000D722000800000000E3220008EF22000899
:100040006523000865230008652300086523000870
:100050006523000865230008652300086523000860
:100060006523000865230008652300086523000850
:100070006523000865230008652300086523000840
:100080006523000865230008652300086523000830
:100090006523000865230008652300086523000820
:1000A0006523000865230008652300086523000810
:1000B000FD220008652300080000000065230008F9
:1000C0006523000800000000000000006523000810
:1000D0000000000065230008652300080000000000
:1000E0006523000865230008652300080000000060
:1000F0000000000000000000000000000000000000
:0C01000000000000000000005FF808F1A3
:10010C0010B5054C237833B9044B13B10448AFF345
:10011C0000800123237010BD0C00002000000000A3
:10012C009439000808B5034B1BB103490348AFF3DE
:10013C00008008BD00000000100000209439000869
:10014C0080B483B000AF0023FB715CE0FA793249D4
:10015C0013469B0013449B000B441B68002B4FD091
:10016C00FA792D4913469B0013449B000B4404332E
:10017C001B68002B32D1FA79274913469B00134494
:10018C009B000B440C331B78FA790133D8B222490B
:10019C0013469B0013449B000B440C3302461A700D
:1001AC00FA791D4913469B0013449B000B440833FA
:1001BC001B68002B24D0F979FA7917480B469B0061
:1001CC000B449B00034408331968134813469B00E7
:1001DC0013449B0003440433196011E0FA790E496F
:1001EC0013469B0013449B000B4404331B68591E9D
:1001FC00094813469B0013449B00034404331960C5
:10020C00FB790133FB71FB79272B9FD900BF00BF12
:10021C000C37BD4680BC70479400002080B487B07A
:10022C0000AFF860B9607A600023FB7502E0FB7DDB
:10023C000133FB75FA7D204913469B0013449B0048
:10024C000B441B68002B02D0FB7D272BEFD9FB7DC9
:10025C00282B04D1194B01221A70282327E0FA7D90
:10026C00154913469B0013449B000B44FA681A6013
:10027C00FA7D114913469B0013449B000B44043335
:10028C00BA681A60FA7D0C4913469B0013449B0014
:10029C000B4408337A681A60FA7D074913469B00B1
:1002AC0013449B000B440C3300221A70FB7D184640
:1002BC001C37BD4680BC70479400002028000020ED
:1002CC0080B582B000AF0023FB7139E0FA79224986
:1002DC0013469B0013449B000B440C331B78002BE0
:1002EC002BD0FA791C4913469B0013449B000B44FA
:1002FC001B689847FA79184913469B0013449B00D6
:10030C000B440C331B78013BD8B2134913469B00AA
:10031C0013449B000B440C3302461A70FA790E49B5
:10032C0013469B0013449B000B4408331B68002BA3
:10033C0003D1FB79184600F011F8FB790133FB71FE
:10034C00FB79272BC2D900F057F800F04FF800BF0B
:10035C000837BD4680BD00BF9400002080B485B036
:10036C0000AF78601F497A6813469B0013449B00CA
:10037C000B441B68002B05D11B4B08221A70092358
:10038C00FB7301E00A23FB7316497A6813469B0042
:10039C0013449B000B4400221A6012497A681346DE
:1003AC009B0013449B000B44043300221A600D493C
:1003BC007A6813469B0013449B000B4408330022BD
:1003CC001A6008497A6813469B0013449B000B443F
:1003DC000C3300221A70FB7B18461437BD4680BCC8
:1003EC00704700BF940000202800002080B400AFAC
:1003FC0000BFBD4680BC704780B400AF00BFBD4697
:10040C0080BC704780B500AF01F000F90346012BAA
:10041C0035D11C4B1B68022B0CD11B4B01221A60D3
:10042C001A4B00221A601A4B00221A60194B1B68D7
:10043C00194A1360134B1B68032B0CD1124B00226F
:10044C001A60124B01221A60114B00221A60114BD8
:10045C001B68114A13600B4B1B68042B0FD10F4BFD
:10046C0001221A60084B00221A60084B00221A6005
:10047C00074B01221A60074B1B68074A136000BF29
:10048C0080BD00BF68000020340000203800002030
:10049C003C0000206C0000204000002030000020B8
:1004AC0080B500AF1A4B1B68012B02D1194B0022EF
:1004BC001A60174B1B68022B08D1174B1B68002BBB
:1004CC0004D1164B0B221A6001F094FC104B1B68E4
:1004DC00032B0BD1104B00221A60114B1B68002B05
:1004EC0004D10E4B0C221A6001F084FC084B1B68E3
:1004FC00042B0BD10A4B00221A60064B1B68002BF5
:10050C0004D1064B0D221A6001F074FC00BF80BDB3
:10051C00680000203C000020340000205400002023
:10052C003800002080B500AF2F4B1B68012B2BD15E
:10053C002E4B00221A602E4B1B68012B24D12C4B06
:10054C0000221A602B4B02221A602B4B32221A60AB
:10055C00294B1B68294A82FB03129210DB17D31A12
:10056C00274A1360274B03221A60274B1E221A605E
:10057C00254B1B68214A82FB03129210DB17D31AFE
:10058C00224A136001F036FC174B1B68022B08D172
:10059C001F4B1B68002B04D11A4B0B221A6001F065
:1005AC0029FC114B1B68032B0BD1194B00221A6031
:1005BC00184B1B68002B04D1124B0C221A6001F053
:1005CC0019FC094B1B68042B0BD1124B00221A602F
:1005DC00064B1B68002B04D10A4B0D221A6001F04C
:1005EC0009FC00BF80BD00BF680000203C0000205B
:1005FC00300000205400002044000020676666662E
:10060C005C00002058000020480000206000002002
:10061C00340000203800002080B500AF334B1B683D
:10062C000C2B61D0314B1B680B2B5DD02F4B1B68F7
:10063C000D2B59D02E4B1B68002B0BD12D4B1B684F
:10064C002D4A82FB03129210DB17D31A184601F0C5
:10065C00CBF838E0264B1B68012B10D1254B1A68C0
:10066C00254B83FB02139910D317C91A0B469B0019
:10067C000B445B00D11A084601F0B6F823E01C4B82
:10068C001B68022B0BD11D4B1B681B4A82FB0312F0
:10069C009210DB17D31A184601F0A6F813E0144B8E
:1006AC001B68032B0FD1154B1A68134B83FB0213DA
:1006BC009910D317C91A0B469B000B445B00D11A37
:1006CC00084601F091F80A4B1B68184601F052FAE3
:1006DC00074B1B680133064A1360054B1B68042B40
:1006EC0002DD034B00221A6000BF80BD54000020C5
:1006FC002C00002060000020676666665C0000200D
:10070C0080B400AF114B1B680C2B1BD00F4B1B681C
:10071C000B2B17D00D4B1B680D2B13D00C4B1B68E0
:10072C00013B0B4A13600A4B1B68002B0ADC094B7C
:10073C001B68094A82FB03129210DB17D31A013390
:10074C00034A136000BFBD4680BC704754000020B4
:10075C005C000020440000206766666680B400AF31
:10076C00114B1B680C2B1BD00F4B1B680B2B17D082
:10077C000D4B1B680D2B13D00C4B1B68013B0B4A0C
:10078C0013600A4B1B68002B0ADC094B1B68094AD7
:10079C0082FB03129210DB17D31A0133034A136046
:1007AC0000BFBD4680BC7047540000206000002094
:1007BC00480000206766666680B500AF2A4B1B6850
:1007CC000C2B07D0284B1B680B2B03D0264B1B681C
:1007DC000D2B46D1254B1B68184601F0CBF9234B4A
:1007EC001B68002B03D1002000F0FEFF2DE01F4BF7
:1007FC001B68012B05D11E4B1B68184600F0F4FF3B
:10080C0023E01A4B1B68022B0BD11A4B1B681A4A9C
:10081C0082FB03129210DB17D31A184600F0E4FF88
:10082C0013E0124B1B68032B0FD1124B1A68124B9F
:10083C0083FB02139910D317C91A0B469B000B4468
:10084C005B00D11A084600F0CFFF084B1B68013340
:10085C00064A1360054B1B68042B02DD034B002278
:10086C001A6000BF80BD00BF540000202C00002087
:10087C00680000206C0000206766666680B500AFDB
:10088C007B4B1B68013B032B00F2DF8001A252F86B
:10089C0023F000BFB1080008D30800083109000894
:1008AC008F090008724B02221A60724B32221A60B6
:1008BC00704B1B68704A82FB03129210DB17D31A21
:1008CC006E4A1360C8E001F0D3F9FFF79BFDFFF708
:1008DC00E7FD684B1B68002B40F0B980684B1B6828
:1008EC00012B18D101F086FA614B09221A60654B75
:1008FC001A6813469B0013445B001A465D4B1A6042
:10090C005C4B1B685C4A82FB03129210DB17D31AF8
:10091C005A4A13609BE0564B03221A60554B1E2219
:10092C001A6094E001F0D0F9FFF76CFDFFF7B8FD09
:10093C00504B1B68002B40F08C80534B1B68012BD9
:10094C0018D101F057FA4A4B0A221A604D4B1A681B
:10095C0013469B0013445B001A46464B1A60454BEA
:10096C001B68454A82FB03129210DB17D31A434AC9
:10097C0013606EE03E4B04221A603E4B14221A6048
:10098C0067E001F08BF9FFF73DFDFFF789FD394B6F
:10099C001B68002B5FD13D4B1B68012B18D101F05C
:1009AC0029FA334B08221A60364B1A6813469B00FF
:1009BC0013445B001A462F4B1A602E4B1B682E4AB1
:1009CC0082FB03129210DB17D31A2C4A136042E0FD
:1009DC002B4B1B68012B16D1254B02221A60294B7D
:1009EC001A6813469B0013445B001433214A1360AE
:1009FC00204B1B68204A82FB03129210DB17D31A80
:100A0C001E4A136027E0204B1B68012B16D1184B94
:100A1C0002221A601B4B1A6813469B0013445B009E
:100A2C001E33144A1360134B1B68134A82FB0312C8
:100A3C009210DB17D31A114A13600CE00C4B0222F4
:100A4C001A600C4B32221A6005E000BF04E000BFB4
:100A5C0002E000BF00E000BF064B1B68002B04DD6A
:100A6C00044B1B68013B034A136000BF80BD00BFF1
:100A7C005400002044000020676666665C0000207D
:100A8C0038000020400000203C00002034000020F2
:100A9C0080B500AFA54B1B68013B032B00F23381E3
:100AAC0001A252F823F000BFC50A0008E70A0008AB
:100ABC007D0B0008130C00089C4B03221A609C4B06
:100ACC001E221A609A4B1B689A4A82FB03129210E0
:100ADC00DB17D31A984A13601CE101F00BF9FFF7EE
:100AEC0091FCFFF71FFD954B1B68012B17D101F0F3
:100AFC0081F98E4B08221A60914B1A6813469B00A1
:100B0C0013445B001A468A4B1A60894B1B68894A4E
:100B1C0082FB03129210DB17D31A874A1360844BA3
:100B2C001B68002B40F0F180864B1B68012B18D101
:100B3C0001F060F97D4B09221A60814B1A6813464B
:100B4C009B0013445B001A46794B1A60784B1B6868
:100B5C00784A82FB03129210DB17D31A764A136081
:100B6C00D3E0724B03221A60714B1E221A60CCE048
:100B7C0001F0ECF8FFF746FCFFF7D4FC724B1B6856
:100B8C00012B17D101F036F9684B09221A606C4B16
:100B9C001A6813469B0013445B001A46644B1A6098
:100BAC00634B1B68634A82FB03129210DB17D31A48
:100BBC00614A13605E4B1B68002B40F0A880614BB0
:100BCC001B68012B18D101F015F9584B0A221A6039
:100BDC005B4B1A6813469B0013445B001A46544B3C
:100BEC001A60534B1B68534A82FB03129210DB179B
:100BFC00D31A514A13608AE04C4B04221A604C4BB6
:100C0C0014221A6083E001F08BF8FFF7FBFBFFF76F
:100C1C0089FC4C4B1B68012B17D101F0EBF8434BB3
:100C2C000A221A60464B1A6813469B0013445B0059
:100C3C001A463F4B1A603E4B1B683E4A82FB03121E
:100C4C009210DB17D31A3C4A1360394B1B68002BEC
:100C5C005FD13A4B1B68012B18D101F0CBF8334B09
:100C6C0008221A60364B1A6813469B0013445B002B
:100C7C001A462F4B1A602E4B1B682E4A82FB03120E
:100C8C009210DB17D31A2C4A136042E02E4B1B68D0
:100C9C00012B16D1254B02221A60294B1A681346D8
:100CAC009B0013445B001433214A1360204B1B68D8
:100CBC00204A82FB03129210DB17D31A1E4A1360D0
:100CCC0027E0204B1B68012B16D1184B02221A600F
:100CDC001B4B1A6813469B0013445B001E33144ACB
:100CEC001360134B1B68134A82FB03129210DB1721
:100CFC00D31A114A13600CE00C4B02221A600C4BF5
:100D0C0032221A6005E000BF04E000BF02E000BF21
:100D1C0000E000BF064B1B68002B04DD044B1B6876
:100D2C00013B034A136000BF80BD00BF5800002088
:100D3C0048000020676666666000002034000020D2
:100D4C00400000203C0000203800002080B500AF9F
:100D5C008E4B1B68083B052B00F2C58101A252F893
:100D6C0023F000BF190E00081D0F000865100008C5
:100D7C00890D00088D0E0008C90F0008844B1B68F4
:100D8C00002B04D100F0F8FF814B05221A60814B37
:100D9C001B68032B04D17D4B0C221A6001F02AF83E
:100DAC00FFF730FB7C4B1B68012B40F09E81774B8F
:100DBC0008221A60794B1A6813469B0013445B0097
:100DCC001A46774B1A60764B1B68764A82FB0312E5
:100DDC009210DB17D31A744A1360744B03221A60F7
:100DEC006E4B1A6813469B0013445B00143B704A0D
:100DFC0013606F4B1B686B4A82FB03129210DB175C
:100E0C00D31A6C4A136000F0F5FF6EE1614B1B685E
:100E1C00022B02D000F02CFF08E05D4B1B68002B6E
:100E2C0004D100F0A9FF5A4B05221A60FFF738FBDA
:100E3C00FFF7F2FB5A4B1B68002B40F0588100F077
:100E4C00D9FF524B03221A60534B1B68012B09D15B
:100E5C00524B1A6813469B0013445B00143B504AD8
:100E6C00136002E04E4B1E221A604D4B1B684D4A1C
:100E7C0082FB03129210DB17D31A4B4A136036E134
:100E8C00434B1B68002B04D100F08AFF404B05221A
:100E9C001A60404B1B68042B04D13C4B0D221A608A
:100EAC0000F0A8FFFFF7AEFA434B1B68012B40F094
:100EBC002081364B02221A60384B1A6813469B006D
:100ECC0013445B001433364A1360354B1B68354AA8
:100EDC0082FB03129210DB17D31A334A1360334B85
:100EEC0009221A602D4B1A6813469B0013445B00B1
:100EFC001A462F4B1A602E4B1B682A4A82FB031290
:100F0C009210DB17D31A2B4A136000F073FFF0E03A
:100F1C00204B1B68032B02D000F0D6FE08E01C4BC4
:100F2C001B68002B04D100F03BFF194B05221A6003
:100F3C00FFF7B6FAFFF770FB194B1B68002B40F05C
:100F4C00DA8000F057FF114B04221A60124B1B6819
:100F5C00012B0DD1114B1B68012B0CDC0F4B1A68AC
:100F6C0013469B0013445B001A460D4B1A6002E0BB
:100F7C000B4B14221A600A4B1B680A4A82FB0312A1
:100F8C009210DB17D31A084A1360B4E05400002007
:100F9C004C0000206800002034000020400000209D
:100FAC0044000020676666665C0000205800002044
:100FBC00480000206000002038000020564B1B68C1
:100FCC00002B04D100F002FF534B32221A60534B1A
:100FDC001B68012B11D1524B02221A60514B322249
:100FEC001A60504B1B68504A82FB03129210DB179D
:100FFC00D31A4E4A136000F0FDFEFFF703FA4C4B78
:10100C001B68012B79D1464B08221A60494B1A6890
:10101C0013469B0013445B001E33424A1360414B42
:10102C001B68414A82FB03129210DB17D31A3F4A0A
:10103C001360414B03221A60404B1E221A603F4B37
:10104C001B68394A82FB03129210DB17D31A3C4AF5
:10105C00136000F0CFFE50E0304B1B68042B02D025
:10106C0000F01CFE08E02C4B1B68002B04D100F098
:10107C00ADFE294B05221A60FFF712FAFFF7CCFAE6
:10108C00284B1B68002B3AD100F0B4FE244B0222F3
:10109C001A602C4B1B68012B09D1264B1A6813467E
:1010AC009B0013445B0014331E4A136010E0204B6A
:1010BC001B68012B09D11F4B1A6813469B00134464
:1010CC005B001E33174A136002E0164B32221A6083
:1010DC00144B1B68144A82FB03129210DB17D31AB1
:1010EC00124A13600BE000BF0AE000BF08E000BF2B
:1010FC0006E000BF04E000BF02E000BF00E000BF5C
:10110C00054B1B68002B04DD034B1B68013B024A9B
:10111C00136000BF80BD00BF4C00002068000020A1
:10112C005400002044000020676666665C000020C6
:10113C003C00002040000020580000204800002007
:10114C00600000203800002080B500AF8E4B1B687B
:10115C00083B052B00F2008101A252F823F000BFDE
:10116C00AD11000845120008E912000885110008AD
:10117C001D120008BD120008844B1B68002B04D103
:10118C0000F004FE814B05221A60814B1B68032B77
:10119C0040F0E4807C4B0C221A6000F02BFEDDE06A
:1011AC007B4B1B68022B02D000F0A4FD08E0774BB0
:1011BC001B68002B04D100F0E9FD744B05221A606A
:1011CC00FFF7B0F9734B1B68002B40F0C98000F09F
:1011DC0011FE6D4B03221A606F4B1B68012B09D15A
:1011EC006E4B1A6813469B0013445B00143B694A10
:1011FC00136002E0674B1E221A60664B1B68684A3C
:10120C0082FB03129210DB17D31A664A1360A7E015
:10121C005E4B1B68002B04D100F0CCFD5B4B052210
:10122C001A605B4B1B68042B40F09C80564B0D22C4
:10123C001A6000F0DFFD95E0554B1B68032B02D0C4
:10124C0000F084FD08E0514B1B68002B04D100F02A
:10125C00B1FD4E4B05221A60FFF764F94D4B1B682C
:10126C00002B40F0818000F0C5FD474B04221A6032
:10127C00494B1B68012B0DD1484B1B68012B0CDC17
:10128C00464B1A6813469B0013445B001A46414BAD
:10129C001A6002E03F4B14221A603E4B1B68404A16
:1012AC0082FB03129210DB17D31A3E4A13605BE0E9
:1012BC00364B1B68002B04D100F092FD334B0522FA
:1012CC001A60334B1B68012B50D12F4B03221A6031
:1012DC00304B1E221A6000F08DFD47E02B4B1B6833
:1012EC00002B04D100F07CFD284B05221A60FFF77F
:1012FC0019F9284B1B68002B3AD100F07BFD224BCF
:10130C0002221A60284B1B68012B09D1234B1A6847
:10131C0013469B0013445B0014331E4A136010E009
:10132C00224B1B68012B09D11C4B1A6813469B00DE
:10133C0013445B001E33174A136002E0154B322234
:10134C001A60144B1B68164A82FB03129210DB17AF
:10135C00D31A144A13600BE000BF0AE000BF08E088
:10136C0000BF06E000BF04E000BF02E000BF00E0E9
:10137C0000BF064B1B68002B04DD044B1B68013BB4
:10138C00024A136000BF80BD5800002050000020AE
:10139C00680000204800002034000020400000209D
:1013AC006766666660000020380000203C00002064
:1013BC0080B500AF264B1B78022B38D0022B45DCB6
:1013CC00002B02D0012B1ED040E0002000F0D8F9F9
:1013DC000346002B35D01E4B01221A7000F0DAF8B0
:1013EC000346012B2DD11B4B1B680133194A13608B
:1013FC00194B00221A60174B1B68042B21DD154B6F
:10140C0001221A601DE0002000F0BAF90346002BFF
:10141C0003D10F4B00221A7015E0002000F0CAF91E
:10142C000346012B0FD10A4B02221A700BE000204D
:10143C0000F0A6F90346002B07D1054B00221A70C9
:10144C0003E000BF02E000BF00E000BF00BF80BDB2
:10145C0064000020680000206C00002080B500AF04
:10146C00254B1B78022B35D0022B42DC002B02D0F3
:10147C00012B1BD03DE0012000F082F90346002B2C
:10148C0032D01D4B01221A7000F0A2F80346012B3A
:10149C002AD11A4B1B680133184A1360174B1B686F
:1014AC00632B21DD154B00221A601DE0012000F09A
:1014BC0067F90346002B03D10F4B00221A7015E07D
:1014CC00012000F077F90346012B0FD10A4B0222C1
:1014DC001A700BE0012000F053F90346002B07D1E2
:1014EC00054B00221A7003E000BF02E000BF00E0D1
:1014FC0000BF00BF80BD00BF650000206C00002055
:10150C0080B500AF1C4B1B78022B24D0022B31DC96
:10151C00002B02D0012B0AD02CE0022000F030F975
:10152C000346002B21D0144B01221A701DE002201F
:10153C0000F026F90346002B03D10F4B00221A7042
:10154C0015E0022000F036F90346012B0FD10A4BAF
:10155C0002221A700BE0022000F012F90346002B55
:10156C0007D1054B00221A7003E000BF02E000BF58
:10157C0000E000BF00BF80BD6600002080B400AF5B
:10158C00034B01221A6000BFBD4680BC704700BFF0
:10159C008800002080B400AF064B1B68012B04D1DF
:1015AC00044B00221A60012300E000231846BD46BC
:1015BC0080BC70478800002080B400AF034B012230
:1015CC001A6000BFBD4680BC704700BF8C00002075
:1015DC0080B400AF064B1B68012B04D1044B0022D6
:1015EC001A60012300E000231846BD4680BC7047FA
:1015FC008C00002080B400AF034B01221A6000BFA6
:10160C00BD4680BC704700BF9000002080B400AF86
:10161C00064B1B68012B04D1044B00221A600123DA
:10162C0000E000231846BD4680BC704790000020A7
:10163C0080B582B000AF0023FB718BE0FA79FB79A7
:10164C004949895C494AD154FB79002B08D10121C5
:10165C00474801F06DF903461A46434B1A7016E0E1
:10166C00FB79012B08D10221414801F061F90346B5
:10167C001A463D4B5A700AE0FB79022B07D1042124
:10168C003B4801F055F903461A46374B9A70FB79E3
:10169C00354AD25CFB793549CB5C9A424ED1FA790A
:1016AC00FB793149895C334AD154FB79314AD35C9B
:1016BC00002B4CD1FB79002B02D1FFF75FFF0AE026
:1016CC00FB79012B02D1FFF777FF04E0FB79022BAA
:1016DC0001D1FFF78FFFFB79274A32F81330632BC8
:1016EC000ED8FB79254AD35C002B09D1FB79224A11
:1016FC0032F81320013291B21F4A22F8131026E05F
:10170C00FB791E4A0121D154FB791B4A32F8133064
:10171C00952B09D8FB79184A32F81320013291B273
:10172C00154A22F8131012E0FB79124A0121D15408
:10173C00FB79114A642122F8131008E0FB790E4A58
:10174C00002122F81310FB790C4A0021D154FB79AB
:10175C000133FB71FB79022B7FF670AF00BF00BF2A
:10176C000837BD4680BD00BF740000207800002003
:10177C00000C014070000020800000207C00002044
:10178C0080B483B000AF0346FB71FB79022B01D907
:10179C00002307E0FB79064AD35C002B0CBF012326
:1017AC000023DBB218460C37BD4680BC704700BF27
:1017BC007000002080B483B000AF0346FB71FB794E
:1017CC00022B01D9FF2307E0FB79064AD35C012BDE
:1017DC000CBF01230023DBB218460C37BD4680BC7E
:1017EC00704700BF7C00002080B582B000AF7860ED
:1017FC007B68002B28D100228021D24801F0AFF861
:10180C0000224FF48071CF4801F0A9F800224FF468
:10181C000071CC4801F0A3F800224FF48061C94854
:10182C0001F09DF800224FF40061C64801F097F8D2
:10183C0000224FF48051C34801F091F801224FF47B
:10184C000051C04801F08BF87B68012B28D1012294
:10185C008021BC4801F083F800224FF48071B94814
:10186C0001F07DF800224FF40071B64801F077F8D2
:10187C0001224FF48061B34801F071F801224FF45A
:10188C000061B04801F06BF801224FF48051AD4873
:10189C0001F065F801224FF40051AA4801F05FF8FD
:1018AC007B68022B28D100228021A64801F057F832
:1018BC0000224FF48071A34801F051F801224FF43B
:1018CC000071A04801F04BF800224FF480619D4854
:1018DC0001F045F800224FF400619A4801F03FF8FE
:1018EC0001224FF48051974801F039F800224FF44F
:1018FC000051944801F033F87B68032B28D1002267
:10190C008021904801F02BF800224FF480718D4813
:10191C0001F025F800224FF400718A4801F01FF8FD
:10192C0000224FF48061874801F019F801224FF42E
:10193C000061844801F013F801224FF48051814872
:10194C0001F00DF800224FF400517E4801F007F829
:10195C007B68042B28D1012280217A4800F0FFFFFC
:10196C0000224FF48071774800F0F9FF00224FF409
:10197C000071744800F0F3FF01224FF4806171484C
:10198C0000F0EDFF01224FF400616E4800F0E7FF1C
:10199C0000224FF480516B4800F0E1FF00224FF41D
:1019AC000051684800F0DBFF7B68052B28D1002232
:1019BC008021644800F0D3FF01224FF4807161480C
:1019CC0000F0CDFF00224FF400715E4800F0C7FF1D
:1019DC0000224FF480615B4800F0C1FF01224FF4FC
:1019EC000061584800F0BBFF00224FF4805155486D
:1019FC0000F0B5FF00224FF40051524800F0AFFF49
:101A0C007B68062B28D1002280214E4800F0A7FFCE
:101A1C0001224FF480714B4800F0A1FF00224FF4DB
:101A2C000071484800F09BFF00224FF4806145484C
:101A3C0000F095FF00224FF40061424800F08FFF48
:101A4C0000224FF480513F4800F089FF00224FF4F0
:101A5C0000513C4800F083FF7B68072B28D1002203
:101A6C008021384800F07BFF00224FF4807135480C
:101A7C0000F075FF00224FF40071324800F06FFF48
:101A8C0001224FF480612F4800F069FF01224FF4CE
:101A9C0000612C4800F063FF01224FF4805129486B
:101AAC0000F05DFF01224FF40051264800F057FF73
:101ABC007B68082B28D100228021224800F04FFFA0
:101ACC0000224FF480711F4800F049FF00224FF4B0
:101ADC0000711C4800F043FF00224FF4806119484C
:101AEC0000F03DFF00224FF40061164800F037FF74
:101AFC0000224FF48051134800F031FF00224FF4C4
:101B0C000051104800F02BFF7B68092B2BD10022D1
:101B1C0080210C4800F023FF00224FF4807109480B
:101B2C0000F01DFF00224FF40071064800F017FF73
:101B3C0000224FF48061034800F011FF01224FF4A2
:101B4C00006101E000080140094800F008FF002294
:101B5C004FF48051064800F002FF00224FF4005170
:101B6C00034800F0FCFE00BF0837BD4680BD00BF37
:101B7C000008014080B582B000AF78607B68032B11
:101B8C006ED801A252F823F0A51B0008D71B000841
:101B9C00091C00083B1C000800224FF4007133485C
:101BAC0000F0DDFE01224FF48061304800F0D7FEDA
:101BBC0001224FF400612D4800F0D1FE01224FF4B8
:101BCC0080512A4800F0CBFE4BE001224FF400710B
:101BDC00264800F0C4FE00224FF48061234800F038
:101BEC00BEFE01224FF40061204800F0B8FE012235
:101BFC004FF480511D4800F0B2FE32E001224FF448
:101C0C0000711A4800F0ABFE01224FF480611748B6
:101C1C0000F0A5FE00224FF40061144800F09FFE76
:101C2C0001224FF48051114800F099FE19E0012275
:101C3C004FF400710D4800F092FE01224FF48061C8
:101C4C000A4800F08CFE01224FF40061074800F0B6
:101C5C0086FE00224FF48051044800F080FE00E024
:101C6C0000BF00BF0837BD4680BD00BF000C01405F
:101C7C0080B500AF01220821074800F070FE002259
:101C8C002021054800F06BFE00221021024800F0D4
:101C9C0066FE00BF80BD00BF000C014080B500AFE8
:101CAC0000220821074800F05AFE00222021054896
:101CBC0000F055FE01221021024800F050FE00BF3A
:101CCC0080BD00BF000C014080B500AF0022082190
:101CDC00074800F044FE01222021054800F03FFE99
:101CEC0000221021024800F03AFE00BF80BD00BF68
:101CFC00000C014080B500AF01224021074800F0E4
:101D0C002EFE00224FF48071044800F028FE0022C1
:101D1C008021024800F023FE00BF80BD000C014072
:101D2C0080B500AF00224021074800F018FE0022C9
:101D3C004FF48071044800F012FE01228021024809
:101D4C0000F00DFE00BF80BD000C014080B500AF5F
:101D5C0000224021074800F002FE01224FF480715E
:101D6C00044800F0FCFD00228021024800F0F7FD41
:101D7C0000BF80BD000C014080B500AF08210248B7
:101D8C0000F005FE00BF80BD000C014080B500AF27
:101D9C004021024800F0FBFD00BF80BD000C01405B
:101DAC0080B500AF2021024800F0F1FD00BF80BDDE
:101DBC00000C014080B500AF4FF48071024800F078
:101DCC00E6FD00BF80BD00BF000C014080B500AF38
:101DDC001021024800F0DBFD00BF80BD000C01406B
:101DEC0080B500AF8021024800F0D1FD00BF80BD5E
:101DFC00000C014080B500AF002208210F4800F014
:101E0C00AEFD002220210D4800F0A9FD002210217A
:101E1C000A4800F0A4FD00224021084800F09FFD74
:101E2C0000224FF48071054800F099FD00228021BA
:101E3C00024800F094FD00BF80BD00BF000C0140C3
:101E4C0080B500AF00F08AFA00F0D4F800F05AF92F
:101E5C0000F00CF9524801F0DFF9012280215148C1
:101E6C0000F07DFD01224FF480714E4800F077FDAB
:101E7C0001224FF400714B4800F071FD01224FF428
:101E8C008061484800F06BFD01224FF40061454829
:101E9C0000F065FD01224FF48051424800F05FFDD7
:101EAC0001224FF400513F4800F059FD01224FF43C
:101EBC0000713D4800F053FD01224FF480613A4817
:101ECC0000F04DFD01224FF40061374800F047FD52
:101EDC0001224FF48051344800F041FD01224FF4AF
:101EEC000051314800F03BFD01224FF480412E4857
:101EFC0000F035FD01224FF400412B4800F02FFD7E
:101F0C002A4B01221A602A4B01221A60294B00220B
:101F1C001A60294B00221A60284B01221A60284BA8
:101F2C0000221A60274B00221A600A220021264840
:101F3C00FEF774F90A2200212448FEF76FF91922E2
:101F4C0064212348FEF76AF9642264212148FEF7D4
:101F5C0065F9642264212048FEF760F91922642196
:101F6C001E48FEF75BF90A220A211D48FEF756F9B6
:101F7C000A220A211B48FEF751F90A220A211A48A3
:101F8C00FEF74CF90A220A211848FEF747F90A22F3
:101F9C000A211748FEF742F9FEF792F9FCE700BF59
:101FAC00B403002000080140000C01405400002044
:101FBC005800002044000020480000206800002049
:101FCC006C0000202C000020890800089D0A0008E5
:101FDC00250600080D07000869070008C50700085A
:101FEC00590D000855110008BD13000869140008AC
:101FFC000D15000880B590B000AF07F1180328222A
:10200C000021184601F0B8FC3B1D00221A605A60F2
:10201C009A60DA601A610223BB610123BB62102350
:10202C00FB6200237B6307F11803184600F0C8FC21
:10203C000346002B01D000F0D8F80F237B6000235F
:10204C00BB600023FB6000233B6100237B613B1DD5
:10205C000021184600F034FF0346002B01D000F09D
:10206C00C4F800BF4037BD4680BD000080B586B0C7
:10207C0000AF07F1080300221A605A609A60DA6018
:10208C003B4600221A605A601D4B4FF080421A608A
:10209C001B4B41F63F725A60194B00229A60184B49
:1020AC000922DA60164B00221A61154B00229A6144
:1020BC00134801F061F80346002B01D000F095F8AD
:1020CC004FF48053BB6007F1080319460C4801F02C
:1020DC00DFF90346002B01D000F087F800233B60AA
:1020EC0000237B603B461946054801F0B7FB0346CD
:1020FC00002B01D000F079F800BF1837BD4680BD29
:10210C00B403002080B586B000AF07F108030022AD
:10211C001A605A609A60DA60284B9B69274A43F030
:10212C0004039361254B9B6903F004037B607B687C
:10213C00224B9B69214A43F0080393611F4B9B6917
:10214C0003F008033B603B6800224FF47E511C48AF
:10215C0000F005FC00224FF6F8711A4800F0FFFB66
:10216C004FF47E53BB600123FB6000233B610223D1
:10217C007B6107F108031946114800F05FFA072349
:10218C00BB600023FB6001233B6107F10803194688
:10219C000C4800F053FA4FF6F873BB600123FB6058
:1021AC0000233B6102237B6107F1080319460548B4
:1021BC0000F044FA00BF1837BD4680BD0010024045
:1021CC0000080140000C014080B582B000AF78607F
:1021DC007B681B68B3F1804F03D1FFF729FAFDF739
:1021EC00AFFF00BF0837BD4680BD80B400AF72B6EC
:1021FC0000BFFEE780B485B000AF154B9B69144A55
:10220C0043F001039361124B9B6903F00103BB6024
:10221C00BB680F4BDB690E4A43F08053D3610C4B08
:10222C00DB6903F080537B607B680A4B5B68FB6067
:10223C00FB6823F0E063FB60FB6843F08063FB60AA
:10224C00044AFB68536000BF1437BD4680BC70471E
:10225C00001002400000014080B584B000AF7860EF
:10226C007B681B68B3F1804F13D10C4BDB690B4AB5
:10227C0043F00103D361094BDB6903F00103FB60FD
:10228C00FB68002200211C2000F0A1F91C2000F0AA
:10229C00BAF900BF1037BD4680BD00BF0010024028
:1022AC0080B400AFFEE780B400AFFEE780B400AFAF
:1022BC00FEE780B400AFFEE780B400AFFEE780B469
:1022CC0000AF00BFBD4680BC704780B400AF00BFFC
:1022DC00BD4680BC704780B400AF00BFBD4680BC1B
:1022EC00704780B500AF00F07FF800BF80BD0000E4
:1022FC0080B500AF024800F0DBFF00BF80BD00BF1F
:10230C00B403002080B400AF00BFBD4680BC704752
:10231C00FFF7F8FF0B480C490C4A002302E0D45895
:10232C00C4500433C4188C42F9D3094A094C002315
:10233C0001E013600432A242FBD301F0F9FAFFF77B
:10234C007FFD7047000000200C000020D8390008E9
:10235C000C00002000040020FEE7000080B500AF58
:10236C00084B1B68074A43F010031360032000F06E
:10237C0023F90F2000F008F8FFF73CFF0023184664
:10238C0080BD00BF0020024080B582B000AF7860F5
:10239C00124B1A68124B1B7819464FF47A73B3FB25
:1023AC00F1F3B2FBF3F3184600F03BF90346002BB4
:1023BC0001D001230EE07B680F2B0AD8002279682C
:1023CC004FF0FF3000F003F9064A7B6813600023DE
:1023DC0000E0012318460837BD4680BD00000020F0
:1023EC00080000200400002080B400AF054B1B78CF
:1023FC001A46054B1B681344034A136000BFBD46C5
:10240C0080BC704708000020FC03002080B400AFA3
:10241C00024B1B681846BD4680BC7047FC0300206D
:10242C0080B485B000AF78607B6803F00703FB6075
:10243C000C4BDB68BB60BA684FF6FF031340BB6004
:10244C00FB681A02BB68134343F0BF6343F40033C9
:10245C00BB60044ABB68D36000BF1437BD4680BC68
:10246C00704700BF00ED00E080B400AF044BDB68A8
:10247C001B0A03F007031846BD4680BC704700BF1B
:10248C0000ED00E080B483B000AF0346FB7197F918
:10249C000730002B0BDBFB7903F01F02064997F981
:1024AC0007305B09012000FA02F241F8232000BF3B
:1024BC000C37BD4680BC704700E100E080B483B0AF
:1024CC0000AF03463960FB7197F90730002B0ADB2C
:1024DC003B68DAB20C4997F907301201D2B20B44BF
:1024EC0083F800230AE03B68DAB20849FB7903F071
:1024FC000F03043B1201D2B20B441A7600BF0C3707
:10250C00BD4680BC704700BF00E100E000ED00E07C
:10251C0080B489B000AFF860B9607A60FB6803F0F2
:10252C000703FB61FB69C3F10703042B28BF0423DA
:10253C00BB61FB690433062B02D9FB69033B00E04A
:10254C0000237B614FF0FF32BB6902FA03F3DA43DD
:10255C00BB681A407B699A404FF0FF317B6901FAE6
:10256C0003F3D9437B680B40134318462437BD460D
:10257C0080BC704780B582B000AF78607B68013B4F
:10258C00B3F1807F01D301230FE00A4A7B68013B42
:10259C0053600F214FF0FF30FFF790FF054B0022E7
:1025AC009A60044B07221A60002318460837BD4670
:1025BC0080BD00BF10E000E080B582B000AF786055
:1025CC007868FFF72DFF00BF0837BD4680BD80B58A
:1025DC0086B000AF0346B9607A60FB7300237B6161
:1025EC00FFF742FF78617A68B9687869FFF790FF66
:1025FC00024697F90F3011461846FFF75FFF00BFF0
:10260C001837BD4680BD80B582B000AF0346FB7164
:10261C0097F907301846FFF735FF00BF0837BD465E
:10262C0080BD80B582B000AF78607868FFF7A2FFFC
:10263C00034618460837BD4680BD000080B48BB0F9
:10264C0000AF7860396000237B6200233B6248E175
:10265C0001227B6A02FA03F3FB613B681B68FA698F
:10266C001340BB61BA69FB699A4240F037813B6801
:10267C005B68A34A93425ED0A14A934275D8A14AA3
:10268C00934258D09F4A93426FD89F4A934252D05C
:10269C009D4A934269D89D4A93424CD09B4A93429F
:1026AC0063D89B4A934246D0994A93425DD8122BE9
:1026BC002AD8122B59D801A252F823F0432700082C
:1026CC001D2700082F27000871270008772700080E
:1026DC007727000877270008772700087727000856
:1026EC007727000877270008772700087727000846
:1026FC007727000877270008772700087727000836
:10270C002527000839270008824A934213D02CE071
:10271C003B68DB683B6229E03B68DB6804333B6267
:10272C0024E03B68DB6808333B621FE03B68DB68F6
:10273C000C333B621AE03B689B68002B02D10423EC
:10274C003B6213E03B689B68012B05D108233B627D
:10275C007B68FA691A6109E008233B627B68FA69B5
:10276C005A6103E000233B6200E000BFBB69FF2B12
:10277C0001D87B6801E07B6804337B61BB69FF2B6C
:10278C0002D87B6A9B0002E07B6A083B9B003B61A2
:10279C007B691A680F213B6901FA03F3DB431A408A
:1027AC00396A3B6901FA03F31A437B691A603B6887
:1027BC005B6803F08053002B00F09080564B9B69B4
:1027CC00554A43F001039361534B9B6903F001039A
:1027DC00BB60BB68514A7B6A9B08023352F82330BA
:1027EC00FB607B6A03F003039B000F2202FA03F3E6
:1027FC00DB43FA681340FB607B68494A93420DD077
:10280C007B68484A934207D07B68474A934201D180
:10281C00022304E0032302E0012300E000237A6A90
:10282C0002F0030292009340FA681343FB603B49A9
:10283C007B6A9B080233FA6841F823203B685B688B
:10284C0003F48013002B06D0384B9A683749BB69C8
:10285C0013438B6006E0354B9A68BB69DB43334905
:10286C0013408B603B685B6803F40013002B06D0AD
:10287C002E4BDA682D49BB691343CB6006E02B4B1A
:10288C00DA68BB69DB4329491340CB603B685B6862
:10289C0003F40033002B06D0244B5A682349BB6940
:1028AC0013434B6006E0214B5A68BB69DB431F495D
:1028BC0013404B603B685B6803F48033002B06D0FD
:1028CC001A4B1A681949BB6913430B6006E0174B86
:1028DC001A68BB69DB43154913400B607B6A0133F3
:1028EC007B623B681A687B6A22FA03F3002B7FF445
:1028FC00AFAE00BF00BF2C37BD4680BC704700BFD9
:10290C0000003210000031100000221000002110D5
:10291C0000001210000011100010024000000140D5
:10292C0000080140000C014000100140000401406F
:10293C0080B485B000AF78600B467B807B689A686A
:10294C007B881340002B02D00123FB7301E0002392
:10295C00FB73FB7B18461437BD4680BC704780B4B4
:10296C0083B000AF78600B467B8013467B707B781E
:10297C00002B03D07A887B681A6103E07B881A04E9
:10298C007B681A6100BF0C37BD4680BC704780B4B1
:10299C0085B000AF78600B467B807B68DB68FB60A2
:1029AC007A88FB6813401A04FB68D9437B880B4078
:1029BC001A437B681A6100BF1437BD4680BC704750
:1029CC0080B586B000AF78607B68002B01D1012305
:1029DC006CE27B681B6803F00103002B00F087801E
:1029EC00924B5B6803F00C03042B0CD08F4B5B6891
:1029FC0003F00C03082B12D18C4B5B6803F480336F
:102A0C00B3F5803F0BD1894B1B6803F40033002BCB
:102A1C006CD07B685B68002B68D1012346E27B6835
:102A2C005B68B3F5803F06D1804B1B687F4A43F44B
:102A3C00803313602EE07B685B68002B0CD17B4BE2
:102A4C001B687A4A23F480331360784B1B68774AEF
:102A5C0023F4802313601DE07B685B68B3F5A02F23
:102A6C000CD1724B1B68714A43F4802313606F4B7B
:102A7C001B686E4A43F4803313600BE06B4B1B688E
:102A8C006A4A23F480331360684B1B68674A23F44B
:102A9C00802313607B685B68002B13D0FFF7B6FCB8
:102AAC00386108E0FFF7B2FC02463B69D31A642B8D
:102ABC0001D90323FAE15D4B1B6803F40033002BAF
:102ACC00F0D014E0FFF7A2FC386108E0FFF79EFCA1
:102ADC0002463B69D31A642B01D90323E6E1534B1D
:102AEC001B6803F40033002BF0D100E000BF7B68BF
:102AFC001B6803F00203002B63D04C4B5B6803F0A4
:102B0C000C03002B0BD0494B5B6803F00C03082B18
:102B1C001CD1464B5B6803F48033002B16D1434B1E
:102B2C001B6803F00203002B05D07B681B69012B8B
:102B3C0001D00123BAE13D4B1B6823F0F8027B68FE
:102B4C005B69DB00394913430B603AE07B681B6916
:102B5C00002B20D0364B01221A60FFF757FC38614E
:102B6C0008E0FFF753FC02463B69D31A022B01D94C
:102B7C0003239BE12D4B1B6803F00203002BF0D0C9
:102B8C002A4B1B6823F0F8027B685B69DB00274942
:102B9C0013430B6015E0264B00221A60FFF736FC3E
:102BAC00386108E0FFF732FC02463B69D31A022B6E
:102BBC0001D903237AE11D4B1B6803F00203002BA0
:102BCC00F0D17B681B6803F00803002B3AD07B68BC
:102BDC009B69002B19D0174B01221A60FFF716FCCA
:102BEC00386108E0FFF712FC02463B69D31A022B4E
:102BFC0001D903235AE10D4B5B6A03F00203002B4E
:102C0C00F0D0012000F09AFA1CE00A4B00221A6066
:102C1C00FFF7FCFB38610FE0FFF7F8FB02463B695E
:102C2C00D31A022B08D9032340E100BF0010024045
:102C3C0000004242800442429E4B5B6A03F0020356
:102C4C00002BE9D17B681B6803F00403002B00F018
:102C5C00A6800023FB75974BDB6903F08053002B98
:102C6C000DD1944BDB69934A43F08053D361914B64
:102C7C00DB6903F08053BB60BB680123FB758E4B93
:102C8C001B6803F48073002B18D18B4B1B688A4A8A
:102C9C0043F480731360FFF7B9FB386108E0FFF76A
:102CAC00B5FB02463B69D31A642B01D90323FDE023
:102CBC00814B1B6803F48073002BF0D07B68DB68BE
:102CCC00012B06D17B4B1B6A7A4A43F0010313623A
:102CDC002DE07B68DB68002B0CD1764B1B6A754AA8
:102CEC0023F001031362734B1B6A724A23F0040333
:102CFC0013621CE07B68DB68052B0CD16D4B1B6AE7
:102D0C006C4A43F0040313626A4B1B6A694A43F032
:102D1C00010313620BE0674B1B6A664A23F0010345
:102D2C001362644B1B6A634A23F0040313627B68CF
:102D3C00DB68002B15D0FFF769FB38610AE0FFF761
:102D4C0065FB02463B69D31A41F28832934201D9A2
:102D5C000323ABE0574B1B6A03F00203002BEED0AE
:102D6C0014E0FFF753FB38610AE0FFF74FFB024614
:102D7C003B69D31A41F28832934201D9032395E07F
:102D8C004C4B1B6A03F00203002BEED1FB7D012B95
:102D9C0005D1484BDB69474A23F08053D3617B68EC
:102DAC00DB69002B00F08180424B5B6803F00C0365
:102DBC00082B61D07B68DB69022B46D13F4B00228C
:102DCC001A60FFF723FB386108E0FFF71FFB024690
:102DDC003B69D31A022B01D9032367E0354B1B68DF
:102DEC0003F00073002BF0D17B681B6AB3F5803FB6
:102DFC0008D1304B5B6823F400327B689B682D490B
:102E0C0013434B602B4B5B6823F474127B68196A79
:102E1C007B685B6A0B43274913434B60274B0122AA
:102E2C001A60FFF7F3FA386108E0FFF7EFFA024691
:102E3C003B69D31A022B01D9032337E01D4B1B68C6
:102E4C0003F00073002BF0D02FE01C4B00221A6013
:102E5C00FFF7DCFA386108E0FFF7D8FA02463B6965
:102E6C00D31A022B01D9032320E0124B1B6803F069
:102E7C000073002BF0D118E07B68DB69012B01D1CA
:102E8C00012313E00B4B5B68FB60FB6803F480329F
:102E9C007B681B6A9A4206D1FB6803F470127B684C
:102EAC005B6A9A4201D0012300E0002318461837D0
:102EBC00BD4680BD001002400070004060004242E0
:102ECC0080B584B000AF786039607B68002B01D18D
:102EDC000123D0E06A4B1B6803F007033A689A425F
:102EEC0010D9674B1B6823F0070265493B681343F5
:102EFC000B60634B1B6803F007033A689A4201D0DE
:102F0C000123B8E07B681B6803F00203002B20D080
:102F1C007B681B6803F00403002B05D0594B5B68DE
:102F2C00584A43F4E06353607B681B6803F0080362
:102F3C00002B05D0534B5B68524A43F460535360EB
:102F4C00504B5B6823F0F0027B689B684D49134340
:102F5C004B607B681B6803F00103002B40D07B683F
:102F6C005B68012B07D1474B1B6803F40033002B24
:102F7C0015D101237FE07B685B68022B07D1414BA5
:102F8C001B6803F00073002B09D1012373E03D4B48
:102F9C001B6803F00203002B01D101236BE0394BBA
:102FAC005B6823F003027B685B68364913434B6014
:102FBC00FFF72CFAF8600AE0FFF728FA0246FB68E4
:102FCC00D31A41F28832934201D9032353E02D4B9B
:102FDC005B6803F00C027B685B689B009A42EBD148
:102FEC00274B1B6803F007033A689A4210D2244B14
:102FFC001B6823F0070222493B6813430B60204BEC
:10300C001B6803F007033A689A4201D0012332E0AF
:10301C007B681B6803F00403002B08D0194B5B681A
:10302C0023F4E0627B68DB68164913434B607B68D2
:10303C001B6803F00803002B09D0124B5B6823F4C8
:10304C0060527B681B69DB000E4913434B6000F038
:10305C0021F802460B4B5B681B0903F00F030A496E
:10306C00CB5C22FA03F3094A1360094B1B68184620
:10307C00FFF78AF9002318461037BD4680BD00BF04
:10308C000020024000100240AC3900080000002073
:10309C000400002080B487B000AF0023FB60002345
:1030AC00BB6000237B6100237B6000233B611E4BD4
:1030BC005B68FB60FB6803F00C03042B02D0082B4D
:1030CC0003D027E0194B3B6127E0FB689B0C03F016
:1030DC000F03174AD35C7B60FB6803F48033002B2F
:1030EC0010D0114B5B685B0C03F00103114AD35CED
:1030FC00BB607B680D4A02FB03F2BB68B2FBF3F3C7
:10310C007B6104E07B680C4A02FB03F37B617B6907
:10311C003B6102E0054B3B6100BF3B6918461C3725
:10312C00BD4680BC704700BF0010024000127A0000
:10313C00BC390008CC39000800093D0080B485B0CA
:10314C0000AF78600A4B1B680A4AA2FB03235B0A98
:10315C007A6802FB03F3FB6000BFFB685A1EFA603F
:10316C00002BF9D100BF00BF1437BD4680BC70479F
:10317C0000000020D34D621080B582B000AF7860A3
:10318C007B68002B01D1012341E07B6893F83D3033
:10319C00DBB2002B06D17B68002283F83C207868D8
:1031AC00FFF75AF87B68022283F83D207B681A6887
:1031BC007B6804331946104600F056FA7B680122EE
:1031CC0083F846207B68012283F83E207B6801222D
:1031DC0083F83F207B68012283F840207B68012222
:1031EC0083F841207B68012283F842207B6801220E
:1031FC0083F843207B68012283F844207B680122FA
:10320C0083F845207B68012283F83D200023184673
:10321C000837BD4680BD000080B485B000AF786033
:10322C007B6893F83D30DBB2012B01D0012335E0F4
:10323C007B68022283F83D207B681B68DA687B6818
:10324C001B6842F00102DA607B681B68164A9342E5
:10325C0009D07B681B68B3F1804F04D07B681B6876
:10326C00124A934211D17B681B689B6803F00703D9
:10327C00FB60FB68062B10D07B681B681A687B68A8
:10328C001B6842F001021A6007E07B681B681A6831
:10329C007B681B6842F001021A6000231846143741
:1032AC00BD4680BC704700BF002C014000040040AC
:1032BC0080B584B000AF78607B681B68DB68FB600E
:1032CC007B681B681B69BB60BB6803F00203002BA7
:1032DC0020D0FB6803F00203002B1BD07B681B681B
:1032EC006FF002021A617B6801221A777B681B68F7
:1032FC009B6903F00303002B03D0786800F098F966
:10330C0005E0786800F08BF9786800F09AF97B6832
:10331C0000221A77BB6803F00403002B20D0FB6853
:10332C0003F00403002B1BD07B681B686FF00402B6
:10333C001A617B6802221A777B681B689B6903F40D
:10334C004073002B03D0786800F072F905E07868C0
:10335C0000F065F9786800F074F97B6800221A7740
:10336C00BB6803F00803002B20D0FB6803F00803B4
:10337C00002B1BD07B681B686FF008021A617B68FE
:10338C0004221A777B681B68DB6903F00303002BAC
:10339C0003D0786800F04CF905E0786800F03FF94C
:1033AC00786800F04EF97B6800221A77BB6803F04E
:1033BC001003002B20D0FB6803F01003002B1BD054
:1033CC007B681B686FF010021A617B6808221A7701
:1033DC007B681B68DB6903F44073002B03D07868AF
:1033EC0000F026F905E0786800F019F9786800F02B
:1033FC0028F97B6800221A77BB6803F00103002BC5
:10340C000CD0FB6803F00103002B07D07B681B6812
:10341C006FF001021A617868FEF7D6FEBB6803F004
:10342C008003002B0CD0FB6803F08003002B07D02B
:10343C007B681B686FF080021A61786800F06FFA85
:10344C00BB6803F04003002B0CD0FB6803F0400377
:10345C00002B07D07B681B686FF040021A617868FC
:10346C0000F0F8F8BB6803F02003002B0CD0FB68CD
:10347C0003F02003002B07D07B681B686FF0200241
:10348C001A61786800F042FA00BF1037BD4680BD63
:10349C0080B584B000AF786039600023FB737B6823
:1034AC0093F83C30012B01D10223B4E07B6801225C
:1034BC0083F83C207B68022283F83D207B681B68E4
:1034CC009B68BB60BB6823F07703BB60BB6823F4CD
:1034DC007F43BB607B681B68BA689A603B681B685B
:1034EC00B3F5005F3ED0B3F5005F00F28780B3F513
:1034FC00805F00F08680B3F5805F7FD8702B1AD088
:10350C00702B7BD8602B50D0602B77D8502B3CD0B5
:10351C00502B73D8402B58D0402B6FD8302B64D005
:10352C00302B6BD8202B60D0202B67D8002B5CD095
:10353C00102B5AD062E07B6818683B6899683B682E
:10354C005A683B68DB6800F06AF97B681B689B680B
:10355C00BB60BB6843F07703BB607B681B68BA68D1
:10356C009A604FE07B6818683B6899683B685A68BA
:10357C003B68DB6800F053F97B681B689A687B68D2
:10358C001B6842F480429A603CE07B6818683B6898
:10359C0059683B68DB681A4600F0CAF87B681B6800
:1035AC005021184600F021F92CE07B6818683B6824
:1035BC0059683B68DB681A4600F0E8F87B681B68C2
:1035CC006021184600F011F91CE07B6818683B6814
:1035DC0059683B68DB681A4600F0AAF87B681B68E0
:1035EC004021184600F001F90CE07B681A683B6832
:1035FC001B681946104600F0F8F803E00123FB7332
:10360C0000E000BF7B68012283F83D207B6800222C
:10361C0083F83C20FB7B18461037BD4680BD80B438
:10362C0083B000AF786000BF0C37BD4680BC7047DC
:10363C0080B483B000AF786000BF0C37BD4680BC4F
:10364C00704780B483B000AF786000BF0C37BD46C4
:10365C0080BC704780B483B000AF786000BF0C377B
:10366C00BD4680BC7047000080B485B000AF786068
:10367C0039607B681B68FB607B682B4A934207D0E0
:10368C007B68B3F1804F03D07B68284A934208D102
:10369C00FB6823F07003FB603B685B68FA681343BC
:1036AC00FB607B68204A934207D07B68B3F1804F64
:1036BC0003D07B681D4A934208D1FB6823F4407306
:1036CC00FB603B68DB68FA681343FB60FB6823F024
:1036DC0080023B685B691343FB607B68FA681A6085
:1036EC003B689A687B68DA623B681A687B689A6206
:1036FC007B680D4A934203D13B681A697B681A6355
:10370C007B6801225A617B681B6903F00103002B63
:10371C0005D07B681B6923F001027B681A6100BF2E
:10372C001437BD4680BC7047002C0140000400409B
:10373C0080B487B000AFF860B9607A60FB681B6A30
:10374C007B61FB681B6A23F00102FB681A62FB6851
:10375C009B693B613B6923F0F0033B617B681B0178
:10376C003A6913433B617B6923F00A037B617A69F5
:10377C00BB6813437B61FB683A699A61FB687A69A1
:10378C001A6200BF1C37BD4680BC704780B487B03E
:10379C0000AFF860B9607A60FB681B6A7B61FB68FC
:1037AC001B6A23F01002FB681A62FB689B693B6181
:1037BC003B6923F470433B617B681B033A691343F9
:1037CC003B617B6923F0A0037B61BB681B017A69B9
:1037DC0013437B61FB683A699A61FB687A691A62E8
:1037EC0000BF1C37BD4680BC704780B485B000AFAD
:1037FC00786039607B689B68FB60FB6823F0700322
:10380C00FB603A68FB68134343F00703FB607B687B
:10381C00FA689A6000BF1437BD4680BC704780B40C
:10382C0087B000AFF860B9607A603B60FB689B685A
:10383C007B617B6923F47F437B613B681A027B6865
:10384C001A43BB6813437A6913437B61FB687A693B
:10385C009A6000BF1C37BD4680BC704780B485B0F1
:10386C0000AF786039607B6893F83C30012B01D154
:10387C00022341E07B68012283F83C207B68022212
:10388C0083F83D207B681B685B68FB607B681B686A
:10389C009B68BB60FB6823F07003FB603B681B6894
:1038AC00FA681343FB607B681B68FA685A607B6894
:1038BC001B68144A934209D07B681B68B3F1804F94
:1038CC0004D07B681B68104A93420CD1BB6823F070
:1038DC008003BB603B685B68BA681343BB607B6862
:1038EC001B68BA689A607B68012283F83D207B686C
:1038FC00002283F83C20002318461437BD4680BCB8
:10390C00704700BF002C01400004004080B483B01D
:10391C0000AF786000BF0C37BD4680BC704780B4E8
:10392C0083B000AF786000BF0C37BD4680BC7047D9
:10393C0070B500260C4D0D4C641BA410A64209D189
:10394C0000F022F800260A4D0A4C641BA410A64273
:10395C0005D170BD55F8043B98470136EEE755F894
:10396C00043B98470136F2E7D0390008D0390008FB
:10397C00D0390008D439000803460244934200D1E0
:10398C00704703F8011BF9E7F8B500BFF8BC08BC99
:10399C009E467047F8B500BFF8BC08BC9E46704701
:1039AC0000000000000000000102030406070809E3
:1039BC0002030405060708090A0B0C0D0E0F101064
:0439CC0001020000F4
:0439D00031010008B9
:0439D4000D010008D9
:0C39D80000127A00100000000100000046
:040000050800231DAF
:00000001FF
